{
	"contracts/Mapping.sol": {
		"MyFirstMapping": {
			"abi": [
				{
					"inputs": [
						{
							"internalType": "string",
							"name": "_name",
							"type": "string"
						},
						{
							"internalType": "uint8",
							"name": "_age",
							"type": "uint8"
						},
						{
							"internalType": "string",
							"name": "_department",
							"type": "string"
						},
						{
							"internalType": "uint64",
							"name": "_regNumber",
							"type": "uint64"
						}
					],
					"name": "addStudentToArray",
					"outputs": [],
					"stateMutability": "nonpayable",
					"type": "function"
				},
				{
					"inputs": [
						{
							"internalType": "uint64",
							"name": "",
							"type": "uint64"
						}
					],
					"name": "studentToRegNumber",
					"outputs": [
						{
							"internalType": "string",
							"name": "",
							"type": "string"
						}
					],
					"stateMutability": "view",
					"type": "function"
				},
				{
					"inputs": [
						{
							"internalType": "uint256",
							"name": "",
							"type": "uint256"
						}
					],
					"name": "students",
					"outputs": [
						{
							"internalType": "string",
							"name": "name",
							"type": "string"
						},
						{
							"internalType": "uint8",
							"name": "age",
							"type": "uint8"
						},
						{
							"internalType": "string",
							"name": "department",
							"type": "string"
						},
						{
							"internalType": "uint64",
							"name": "regNumber",
							"type": "uint64"
						}
					],
					"stateMutability": "view",
					"type": "function"
				}
			],
			"devdoc": {
				"kind": "dev",
				"methods": {},
				"version": 1
			},
			"evm": {
				"assembly": "    /* \"contracts/Mapping.sol\":56:907  contract MyFirstMapping {... */\n  mstore(0x40, 0x80)\n  callvalue\n  dup1\n  iszero\n  tag_1\n  jumpi\n  0x00\n  dup1\n  revert\ntag_1:\n  pop\n  dataSize(sub_0)\n  dup1\n  dataOffset(sub_0)\n  0x00\n  codecopy\n  0x00\n  return\nstop\n\nsub_0: assembly {\n        /* \"contracts/Mapping.sol\":56:907  contract MyFirstMapping {... */\n      mstore(0x40, 0x80)\n      callvalue\n      dup1\n      iszero\n      tag_1\n      jumpi\n      0x00\n      dup1\n      revert\n    tag_1:\n      pop\n      jumpi(tag_2, lt(calldatasize, 0x04))\n      shr(0xe0, calldataload(0x00))\n      dup1\n      0x06ead22e\n      eq\n      tag_3\n      jumpi\n      dup1\n      0x4ee81e16\n      eq\n      tag_4\n      jumpi\n      dup1\n      0x56f6f438\n      eq\n      tag_5\n      jumpi\n    tag_2:\n      0x00\n      dup1\n      revert\n        /* \"contracts/Mapping.sol\":427:458  StudentStruct[] public students */\n    tag_3:\n      tag_6\n      0x04\n      dup1\n      calldatasize\n      sub\n      dup2\n      add\n      swap1\n      tag_7\n      swap2\n      swap1\n      tag_8\n      jump\t// in\n    tag_7:\n      tag_9\n      jump\t// in\n    tag_6:\n      mload(0x40)\n      tag_10\n      swap5\n      swap4\n      swap3\n      swap2\n      swap1\n      tag_11\n      jump\t// in\n    tag_10:\n      mload(0x40)\n      dup1\n      swap2\n      sub\n      swap1\n      return\n        /* \"contracts/Mapping.sol\":319:370  mapping(uint64 => string) public studentToRegNumber */\n    tag_4:\n      tag_12\n      0x04\n      dup1\n      calldatasize\n      sub\n      dup2\n      add\n      swap1\n      tag_13\n      swap2\n      swap1\n      tag_14\n      jump\t// in\n    tag_13:\n      tag_15\n      jump\t// in\n    tag_12:\n      mload(0x40)\n      tag_16\n      swap2\n      swap1\n      tag_17\n      jump\t// in\n    tag_16:\n      mload(0x40)\n      dup1\n      swap2\n      sub\n      swap1\n      return\n        /* \"contracts/Mapping.sol\":506:905  function addStudentToArray(string memory _name, uint8 _age, string memory _department, uint64 _regNumber) public {... */\n    tag_5:\n      tag_18\n      0x04\n      dup1\n      calldatasize\n      sub\n      dup2\n      add\n      swap1\n      tag_19\n      swap2\n      swap1\n      tag_20\n      jump\t// in\n    tag_19:\n      tag_21\n      jump\t// in\n    tag_18:\n      stop\n        /* \"contracts/Mapping.sol\":427:458  StudentStruct[] public students */\n    tag_9:\n      0x01\n      dup2\n      dup2\n      sload\n      dup2\n      lt\n      tag_22\n      jumpi\n      0x00\n      dup1\n      revert\n    tag_22:\n      swap1\n      0x00\n      mstore\n      keccak256(0x00, 0x20)\n      swap1\n      0x04\n      mul\n      add\n      0x00\n      swap2\n      pop\n      swap1\n      pop\n      dup1\n      0x00\n      add\n      dup1\n      sload\n      tag_24\n      swap1\n      tag_25\n      jump\t// in\n    tag_24:\n      dup1\n      0x1f\n      add\n      0x20\n      dup1\n      swap2\n      div\n      mul\n      0x20\n      add\n      mload(0x40)\n      swap1\n      dup2\n      add\n      0x40\n      mstore\n      dup1\n      swap3\n      swap2\n      swap1\n      dup2\n      dup2\n      mstore\n      0x20\n      add\n      dup3\n      dup1\n      sload\n      tag_26\n      swap1\n      tag_25\n      jump\t// in\n    tag_26:\n      dup1\n      iszero\n      tag_27\n      jumpi\n      dup1\n      0x1f\n      lt\n      tag_28\n      jumpi\n      0x0100\n      dup1\n      dup4\n      sload\n      div\n      mul\n      dup4\n      mstore\n      swap2\n      0x20\n      add\n      swap2\n      jump(tag_27)\n    tag_28:\n      dup3\n      add\n      swap2\n      swap1\n      0x00\n      mstore\n      keccak256(0x00, 0x20)\n      swap1\n    tag_29:\n      dup2\n      sload\n      dup2\n      mstore\n      swap1\n      0x01\n      add\n      swap1\n      0x20\n      add\n      dup1\n      dup4\n      gt\n      tag_29\n      jumpi\n      dup3\n      swap1\n      sub\n      0x1f\n      and\n      dup3\n      add\n      swap2\n    tag_27:\n      pop\n      pop\n      pop\n      pop\n      pop\n      swap1\n      dup1\n      0x01\n      add\n      0x00\n      swap1\n      sload\n      swap1\n      0x0100\n      exp\n      swap1\n      div\n      0xff\n      and\n      swap1\n      dup1\n      0x02\n      add\n      dup1\n      sload\n      tag_30\n      swap1\n      tag_25\n      jump\t// in\n    tag_30:\n      dup1\n      0x1f\n      add\n      0x20\n      dup1\n      swap2\n      div\n      mul\n      0x20\n      add\n      mload(0x40)\n      swap1\n      dup2\n      add\n      0x40\n      mstore\n      dup1\n      swap3\n      swap2\n      swap1\n      dup2\n      dup2\n      mstore\n      0x20\n      add\n      dup3\n      dup1\n      sload\n      tag_31\n      swap1\n      tag_25\n      jump\t// in\n    tag_31:\n      dup1\n      iszero\n      tag_32\n      jumpi\n      dup1\n      0x1f\n      lt\n      tag_33\n      jumpi\n      0x0100\n      dup1\n      dup4\n      sload\n      div\n      mul\n      dup4\n      mstore\n      swap2\n      0x20\n      add\n      swap2\n      jump(tag_32)\n    tag_33:\n      dup3\n      add\n      swap2\n      swap1\n      0x00\n      mstore\n      keccak256(0x00, 0x20)\n      swap1\n    tag_34:\n      dup2\n      sload\n      dup2\n      mstore\n      swap1\n      0x01\n      add\n      swap1\n      0x20\n      add\n      dup1\n      dup4\n      gt\n      tag_34\n      jumpi\n      dup3\n      swap1\n      sub\n      0x1f\n      and\n      dup3\n      add\n      swap2\n    tag_32:\n      pop\n      pop\n      pop\n      pop\n      pop\n      swap1\n      dup1\n      0x03\n      add\n      0x00\n      swap1\n      sload\n      swap1\n      0x0100\n      exp\n      swap1\n      div\n      0xffffffffffffffff\n      and\n      swap1\n      pop\n      dup5\n      jump\t// out\n        /* \"contracts/Mapping.sol\":319:370  mapping(uint64 => string) public studentToRegNumber */\n    tag_15:\n      mstore(0x20, 0x00)\n      dup1\n      0x00\n      mstore\n      keccak256(0x00, 0x40)\n      0x00\n      swap2\n      pop\n      swap1\n      pop\n      dup1\n      sload\n      tag_35\n      swap1\n      tag_25\n      jump\t// in\n    tag_35:\n      dup1\n      0x1f\n      add\n      0x20\n      dup1\n      swap2\n      div\n      mul\n      0x20\n      add\n      mload(0x40)\n      swap1\n      dup2\n      add\n      0x40\n      mstore\n      dup1\n      swap3\n      swap2\n      swap1\n      dup2\n      dup2\n      mstore\n      0x20\n      add\n      dup3\n      dup1\n      sload\n      tag_36\n      swap1\n      tag_25\n      jump\t// in\n    tag_36:\n      dup1\n      iszero\n      tag_37\n      jumpi\n      dup1\n      0x1f\n      lt\n      tag_38\n      jumpi\n      0x0100\n      dup1\n      dup4\n      sload\n      div\n      mul\n      dup4\n      mstore\n      swap2\n      0x20\n      add\n      swap2\n      jump(tag_37)\n    tag_38:\n      dup3\n      add\n      swap2\n      swap1\n      0x00\n      mstore\n      keccak256(0x00, 0x20)\n      swap1\n    tag_39:\n      dup2\n      sload\n      dup2\n      mstore\n      swap1\n      0x01\n      add\n      swap1\n      0x20\n      add\n      dup1\n      dup4\n      gt\n      tag_39\n      jumpi\n      dup3\n      swap1\n      sub\n      0x1f\n      and\n      dup3\n      add\n      swap2\n    tag_37:\n      pop\n      pop\n      pop\n      pop\n      pop\n      dup2\n      jump\t// out\n        /* \"contracts/Mapping.sol\":506:905  function addStudentToArray(string memory _name, uint8 _age, string memory _department, uint64 _regNumber) public {... */\n    tag_21:\n        /* \"contracts/Mapping.sol\":629:660  StudentStruct memory newStudent */\n      0x00\n        /* \"contracts/Mapping.sol\":663:815  StudentStruct({... */\n      mload(0x40)\n      dup1\n      0x80\n      add\n      0x40\n      mstore\n      dup1\n        /* \"contracts/Mapping.sol\":698:703  _name */\n      dup7\n        /* \"contracts/Mapping.sol\":663:815  StudentStruct({... */\n      dup2\n      mstore\n      0x20\n      add\n        /* \"contracts/Mapping.sol\":724:728  _age */\n      dup6\n        /* \"contracts/Mapping.sol\":663:815  StudentStruct({... */\n      0xff\n      and\n      dup2\n      mstore\n      0x20\n      add\n        /* \"contracts/Mapping.sol\":756:767  _department */\n      dup5\n        /* \"contracts/Mapping.sol\":663:815  StudentStruct({... */\n      dup2\n      mstore\n      0x20\n      add\n        /* \"contracts/Mapping.sol\":794:804  _regNumber */\n      dup4\n        /* \"contracts/Mapping.sol\":663:815  StudentStruct({... */\n      0xffffffffffffffff\n      and\n      dup2\n      mstore\n      pop\n        /* \"contracts/Mapping.sol\":629:815  StudentStruct memory newStudent = StudentStruct({... */\n      swap1\n      pop\n        /* \"contracts/Mapping.sol\":825:833  students */\n      0x01\n        /* \"contracts/Mapping.sol\":839:849  newStudent */\n      dup2\n        /* \"contracts/Mapping.sol\":825:850  students.push(newStudent) */\n      swap1\n      dup1\n      0x01\n      dup2\n      sload\n      add\n      dup1\n      dup3\n      sstore\n      dup1\n      swap2\n      pop\n      pop\n      0x01\n      swap1\n      sub\n      swap1\n      0x00\n      mstore\n      keccak256(0x00, 0x20)\n      swap1\n      0x04\n      mul\n      add\n      0x00\n      swap1\n      swap2\n      swap1\n      swap2\n      swap1\n      swap2\n      pop\n      0x00\n      dup3\n      add\n      mload\n      dup2\n      0x00\n      add\n      swap1\n      dup1\n      mload\n      swap1\n      0x20\n      add\n      swap1\n      tag_42\n      swap3\n      swap2\n      swap1\n      tag_43\n      jump\t// in\n    tag_42:\n      pop\n      0x20\n      dup3\n      add\n      mload\n      dup2\n      0x01\n      add\n      exp(0x0100, 0x00)\n      dup2\n      sload\n      dup2\n      0xff\n      mul\n      not\n      and\n      swap1\n      dup4\n      0xff\n      and\n      mul\n      or\n      swap1\n      sstore\n      pop\n      0x40\n      dup3\n      add\n      mload\n      dup2\n      0x02\n      add\n      swap1\n      dup1\n      mload\n      swap1\n      0x20\n      add\n      swap1\n      tag_44\n      swap3\n      swap2\n      swap1\n      tag_43\n      jump\t// in\n    tag_44:\n      pop\n      0x60\n      dup3\n      add\n      mload\n      dup2\n      0x03\n      add\n      exp(0x0100, 0x00)\n      dup2\n      sload\n      dup2\n      0xffffffffffffffff\n      mul\n      not\n      and\n      swap1\n      dup4\n      0xffffffffffffffff\n      and\n      mul\n      or\n      swap1\n      sstore\n      pop\n      pop\n      pop\n        /* \"contracts/Mapping.sol\":893:898  _name */\n      dup5\n        /* \"contracts/Mapping.sol\":860:878  studentToRegNumber */\n      0x00\n        /* \"contracts/Mapping.sol\":860:890  studentToRegNumber[_regNumber] */\n      dup1\n        /* \"contracts/Mapping.sol\":879:889  _regNumber */\n      dup5\n        /* \"contracts/Mapping.sol\":860:890  studentToRegNumber[_regNumber] */\n      0xffffffffffffffff\n      and\n      0xffffffffffffffff\n      and\n      dup2\n      mstore\n      0x20\n      add\n      swap1\n      dup2\n      mstore\n      0x20\n      add\n      0x00\n      keccak256\n        /* \"contracts/Mapping.sol\":860:898  studentToRegNumber[_regNumber] = _name */\n      swap1\n      dup1\n      mload\n      swap1\n      0x20\n      add\n      swap1\n      tag_45\n      swap3\n      swap2\n      swap1\n      tag_43\n      jump\t// in\n    tag_45:\n      pop\n        /* \"contracts/Mapping.sol\":619:905  {... */\n      pop\n        /* \"contracts/Mapping.sol\":506:905  function addStudentToArray(string memory _name, uint8 _age, string memory _department, uint64 _regNumber) public {... */\n      pop\n      pop\n      pop\n      pop\n      jump\t// out\n    tag_43:\n      dup3\n      dup1\n      sload\n      tag_46\n      swap1\n      tag_25\n      jump\t// in\n    tag_46:\n      swap1\n      0x00\n      mstore\n      keccak256(0x00, 0x20)\n      swap1\n      0x1f\n      add\n      0x20\n      swap1\n      div\n      dup2\n      add\n      swap3\n      dup3\n      tag_48\n      jumpi\n      0x00\n      dup6\n      sstore\n      jump(tag_47)\n    tag_48:\n      dup3\n      0x1f\n      lt\n      tag_49\n      jumpi\n      dup1\n      mload\n      not(0xff)\n      and\n      dup4\n      dup1\n      add\n      or\n      dup6\n      sstore\n      jump(tag_47)\n    tag_49:\n      dup3\n      dup1\n      add\n      0x01\n      add\n      dup6\n      sstore\n      dup3\n      iszero\n      tag_47\n      jumpi\n      swap2\n      dup3\n      add\n    tag_50:\n      dup3\n      dup2\n      gt\n      iszero\n      tag_51\n      jumpi\n      dup3\n      mload\n      dup3\n      sstore\n      swap2\n      0x20\n      add\n      swap2\n      swap1\n      0x01\n      add\n      swap1\n      jump(tag_50)\n    tag_51:\n    tag_47:\n      pop\n      swap1\n      pop\n      tag_52\n      swap2\n      swap1\n      tag_53\n      jump\t// in\n    tag_52:\n      pop\n      swap1\n      jump\t// out\n    tag_53:\n    tag_54:\n      dup1\n      dup3\n      gt\n      iszero\n      tag_55\n      jumpi\n      0x00\n      dup2\n      0x00\n      swap1\n      sstore\n      pop\n      0x01\n      add\n      jump(tag_54)\n    tag_55:\n      pop\n      swap1\n      jump\t// out\n        /* \"#utility.yul\":7:82   */\n    tag_56:\n        /* \"#utility.yul\":40:46   */\n      0x00\n        /* \"#utility.yul\":73:75   */\n      0x40\n        /* \"#utility.yul\":67:76   */\n      mload\n        /* \"#utility.yul\":57:76   */\n      swap1\n      pop\n        /* \"#utility.yul\":7:82   */\n      swap1\n      jump\t// out\n        /* \"#utility.yul\":88:205   */\n    tag_57:\n        /* \"#utility.yul\":197:198   */\n      0x00\n        /* \"#utility.yul\":194:195   */\n      dup1\n        /* \"#utility.yul\":187:199   */\n      revert\n        /* \"#utility.yul\":211:328   */\n    tag_58:\n        /* \"#utility.yul\":320:321   */\n      0x00\n        /* \"#utility.yul\":317:318   */\n      dup1\n        /* \"#utility.yul\":310:322   */\n      revert\n        /* \"#utility.yul\":334:411   */\n    tag_59:\n        /* \"#utility.yul\":371:378   */\n      0x00\n        /* \"#utility.yul\":400:405   */\n      dup2\n        /* \"#utility.yul\":389:405   */\n      swap1\n      pop\n        /* \"#utility.yul\":334:411   */\n      swap2\n      swap1\n      pop\n      jump\t// out\n        /* \"#utility.yul\":417:539   */\n    tag_60:\n        /* \"#utility.yul\":490:514   */\n      tag_91\n        /* \"#utility.yul\":508:513   */\n      dup2\n        /* \"#utility.yul\":490:514   */\n      tag_59\n      jump\t// in\n    tag_91:\n        /* \"#utility.yul\":483:488   */\n      dup2\n        /* \"#utility.yul\":480:515   */\n      eq\n        /* \"#utility.yul\":470:533   */\n      tag_92\n      jumpi\n        /* \"#utility.yul\":529:530   */\n      0x00\n        /* \"#utility.yul\":526:527   */\n      dup1\n        /* \"#utility.yul\":519:531   */\n      revert\n        /* \"#utility.yul\":470:533   */\n    tag_92:\n        /* \"#utility.yul\":417:539   */\n      pop\n      jump\t// out\n        /* \"#utility.yul\":545:684   */\n    tag_61:\n        /* \"#utility.yul\":591:596   */\n      0x00\n        /* \"#utility.yul\":629:635   */\n      dup2\n        /* \"#utility.yul\":616:636   */\n      calldataload\n        /* \"#utility.yul\":607:636   */\n      swap1\n      pop\n        /* \"#utility.yul\":645:678   */\n      tag_94\n        /* \"#utility.yul\":672:677   */\n      dup2\n        /* \"#utility.yul\":645:678   */\n      tag_60\n      jump\t// in\n    tag_94:\n        /* \"#utility.yul\":545:684   */\n      swap3\n      swap2\n      pop\n      pop\n      jump\t// out\n        /* \"#utility.yul\":690:1019   */\n    tag_8:\n        /* \"#utility.yul\":749:755   */\n      0x00\n        /* \"#utility.yul\":798:800   */\n      0x20\n        /* \"#utility.yul\":786:795   */\n      dup3\n        /* \"#utility.yul\":777:784   */\n      dup5\n        /* \"#utility.yul\":773:796   */\n      sub\n        /* \"#utility.yul\":769:801   */\n      slt\n        /* \"#utility.yul\":766:885   */\n      iszero\n      tag_96\n      jumpi\n        /* \"#utility.yul\":804:883   */\n      tag_97\n      tag_57\n      jump\t// in\n    tag_97:\n        /* \"#utility.yul\":766:885   */\n    tag_96:\n        /* \"#utility.yul\":924:925   */\n      0x00\n        /* \"#utility.yul\":949:1002   */\n      tag_98\n        /* \"#utility.yul\":994:1001   */\n      dup5\n        /* \"#utility.yul\":985:991   */\n      dup3\n        /* \"#utility.yul\":974:983   */\n      dup6\n        /* \"#utility.yul\":970:992   */\n      add\n        /* \"#utility.yul\":949:1002   */\n      tag_61\n      jump\t// in\n    tag_98:\n        /* \"#utility.yul\":939:1002   */\n      swap2\n      pop\n        /* \"#utility.yul\":895:1012   */\n      pop\n        /* \"#utility.yul\":690:1019   */\n      swap3\n      swap2\n      pop\n      pop\n      jump\t// out\n        /* \"#utility.yul\":1025:1124   */\n    tag_62:\n        /* \"#utility.yul\":1077:1083   */\n      0x00\n        /* \"#utility.yul\":1111:1116   */\n      dup2\n        /* \"#utility.yul\":1105:1117   */\n      mload\n        /* \"#utility.yul\":1095:1117   */\n      swap1\n      pop\n        /* \"#utility.yul\":1025:1124   */\n      swap2\n      swap1\n      pop\n      jump\t// out\n        /* \"#utility.yul\":1130:1299   */\n    tag_63:\n        /* \"#utility.yul\":1214:1225   */\n      0x00\n        /* \"#utility.yul\":1248:1254   */\n      dup3\n        /* \"#utility.yul\":1243:1246   */\n      dup3\n        /* \"#utility.yul\":1236:1255   */\n      mstore\n        /* \"#utility.yul\":1288:1292   */\n      0x20\n        /* \"#utility.yul\":1283:1286   */\n      dup3\n        /* \"#utility.yul\":1279:1293   */\n      add\n        /* \"#utility.yul\":1264:1293   */\n      swap1\n      pop\n        /* \"#utility.yul\":1130:1299   */\n      swap3\n      swap2\n      pop\n      pop\n      jump\t// out\n        /* \"#utility.yul\":1305:1612   */\n    tag_64:\n        /* \"#utility.yul\":1373:1374   */\n      0x00\n        /* \"#utility.yul\":1383:1496   */\n    tag_102:\n        /* \"#utility.yul\":1397:1403   */\n      dup4\n        /* \"#utility.yul\":1394:1395   */\n      dup2\n        /* \"#utility.yul\":1391:1404   */\n      lt\n        /* \"#utility.yul\":1383:1496   */\n      iszero\n      tag_104\n      jumpi\n        /* \"#utility.yul\":1482:1483   */\n      dup1\n        /* \"#utility.yul\":1477:1480   */\n      dup3\n        /* \"#utility.yul\":1473:1484   */\n      add\n        /* \"#utility.yul\":1467:1485   */\n      mload\n        /* \"#utility.yul\":1463:1464   */\n      dup2\n        /* \"#utility.yul\":1458:1461   */\n      dup5\n        /* \"#utility.yul\":1454:1465   */\n      add\n        /* \"#utility.yul\":1447:1486   */\n      mstore\n        /* \"#utility.yul\":1419:1421   */\n      0x20\n        /* \"#utility.yul\":1416:1417   */\n      dup2\n        /* \"#utility.yul\":1412:1422   */\n      add\n        /* \"#utility.yul\":1407:1422   */\n      swap1\n      pop\n        /* \"#utility.yul\":1383:1496   */\n      jump(tag_102)\n    tag_104:\n        /* \"#utility.yul\":1514:1520   */\n      dup4\n        /* \"#utility.yul\":1511:1512   */\n      dup2\n        /* \"#utility.yul\":1508:1521   */\n      gt\n        /* \"#utility.yul\":1505:1606   */\n      iszero\n      tag_105\n      jumpi\n        /* \"#utility.yul\":1594:1595   */\n      0x00\n        /* \"#utility.yul\":1585:1591   */\n      dup5\n        /* \"#utility.yul\":1580:1583   */\n      dup5\n        /* \"#utility.yul\":1576:1592   */\n      add\n        /* \"#utility.yul\":1569:1596   */\n      mstore\n        /* \"#utility.yul\":1505:1606   */\n    tag_105:\n        /* \"#utility.yul\":1354:1612   */\n      pop\n        /* \"#utility.yul\":1305:1612   */\n      pop\n      pop\n      pop\n      jump\t// out\n        /* \"#utility.yul\":1618:1720   */\n    tag_65:\n        /* \"#utility.yul\":1659:1665   */\n      0x00\n        /* \"#utility.yul\":1710:1712   */\n      0x1f\n        /* \"#utility.yul\":1706:1713   */\n      not\n        /* \"#utility.yul\":1701:1703   */\n      0x1f\n        /* \"#utility.yul\":1694:1699   */\n      dup4\n        /* \"#utility.yul\":1690:1704   */\n      add\n        /* \"#utility.yul\":1686:1714   */\n      and\n        /* \"#utility.yul\":1676:1714   */\n      swap1\n      pop\n        /* \"#utility.yul\":1618:1720   */\n      swap2\n      swap1\n      pop\n      jump\t// out\n        /* \"#utility.yul\":1726:2090   */\n    tag_66:\n        /* \"#utility.yul\":1814:1817   */\n      0x00\n        /* \"#utility.yul\":1842:1881   */\n      tag_108\n        /* \"#utility.yul\":1875:1880   */\n      dup3\n        /* \"#utility.yul\":1842:1881   */\n      tag_62\n      jump\t// in\n    tag_108:\n        /* \"#utility.yul\":1897:1968   */\n      tag_109\n        /* \"#utility.yul\":1961:1967   */\n      dup2\n        /* \"#utility.yul\":1956:1959   */\n      dup6\n        /* \"#utility.yul\":1897:1968   */\n      tag_63\n      jump\t// in\n    tag_109:\n        /* \"#utility.yul\":1890:1968   */\n      swap4\n      pop\n        /* \"#utility.yul\":1977:2029   */\n      tag_110\n        /* \"#utility.yul\":2022:2028   */\n      dup2\n        /* \"#utility.yul\":2017:2020   */\n      dup6\n        /* \"#utility.yul\":2010:2014   */\n      0x20\n        /* \"#utility.yul\":2003:2008   */\n      dup7\n        /* \"#utility.yul\":1999:2015   */\n      add\n        /* \"#utility.yul\":1977:2029   */\n      tag_64\n      jump\t// in\n    tag_110:\n        /* \"#utility.yul\":2054:2083   */\n      tag_111\n        /* \"#utility.yul\":2076:2082   */\n      dup2\n        /* \"#utility.yul\":2054:2083   */\n      tag_65\n      jump\t// in\n    tag_111:\n        /* \"#utility.yul\":2049:2052   */\n      dup5\n        /* \"#utility.yul\":2045:2084   */\n      add\n        /* \"#utility.yul\":2038:2084   */\n      swap2\n      pop\n        /* \"#utility.yul\":1818:2090   */\n      pop\n        /* \"#utility.yul\":1726:2090   */\n      swap3\n      swap2\n      pop\n      pop\n      jump\t// out\n        /* \"#utility.yul\":2096:2182   */\n    tag_67:\n        /* \"#utility.yul\":2131:2138   */\n      0x00\n        /* \"#utility.yul\":2171:2175   */\n      0xff\n        /* \"#utility.yul\":2164:2169   */\n      dup3\n        /* \"#utility.yul\":2160:2176   */\n      and\n        /* \"#utility.yul\":2149:2176   */\n      swap1\n      pop\n        /* \"#utility.yul\":2096:2182   */\n      swap2\n      swap1\n      pop\n      jump\t// out\n        /* \"#utility.yul\":2188:2300   */\n    tag_68:\n        /* \"#utility.yul\":2271:2293   */\n      tag_114\n        /* \"#utility.yul\":2287:2292   */\n      dup2\n        /* \"#utility.yul\":2271:2293   */\n      tag_67\n      jump\t// in\n    tag_114:\n        /* \"#utility.yul\":2266:2269   */\n      dup3\n        /* \"#utility.yul\":2259:2294   */\n      mstore\n        /* \"#utility.yul\":2188:2300   */\n      pop\n      pop\n      jump\t// out\n        /* \"#utility.yul\":2306:2407   */\n    tag_69:\n        /* \"#utility.yul\":2342:2349   */\n      0x00\n        /* \"#utility.yul\":2382:2400   */\n      0xffffffffffffffff\n        /* \"#utility.yul\":2375:2380   */\n      dup3\n        /* \"#utility.yul\":2371:2401   */\n      and\n        /* \"#utility.yul\":2360:2401   */\n      swap1\n      pop\n        /* \"#utility.yul\":2306:2407   */\n      swap2\n      swap1\n      pop\n      jump\t// out\n        /* \"#utility.yul\":2413:2528   */\n    tag_70:\n        /* \"#utility.yul\":2498:2521   */\n      tag_117\n        /* \"#utility.yul\":2515:2520   */\n      dup2\n        /* \"#utility.yul\":2498:2521   */\n      tag_69\n      jump\t// in\n    tag_117:\n        /* \"#utility.yul\":2493:2496   */\n      dup3\n        /* \"#utility.yul\":2486:2522   */\n      mstore\n        /* \"#utility.yul\":2413:2528   */\n      pop\n      pop\n      jump\t// out\n        /* \"#utility.yul\":2534:3257   */\n    tag_11:\n        /* \"#utility.yul\":2745:2749   */\n      0x00\n        /* \"#utility.yul\":2783:2786   */\n      0x80\n        /* \"#utility.yul\":2772:2781   */\n      dup3\n        /* \"#utility.yul\":2768:2787   */\n      add\n        /* \"#utility.yul\":2760:2787   */\n      swap1\n      pop\n        /* \"#utility.yul\":2833:2842   */\n      dup2\n        /* \"#utility.yul\":2827:2831   */\n      dup2\n        /* \"#utility.yul\":2823:2843   */\n      sub\n        /* \"#utility.yul\":2819:2820   */\n      0x00\n        /* \"#utility.yul\":2808:2817   */\n      dup4\n        /* \"#utility.yul\":2804:2821   */\n      add\n        /* \"#utility.yul\":2797:2844   */\n      mstore\n        /* \"#utility.yul\":2861:2939   */\n      tag_119\n        /* \"#utility.yul\":2934:2938   */\n      dup2\n        /* \"#utility.yul\":2925:2931   */\n      dup8\n        /* \"#utility.yul\":2861:2939   */\n      tag_66\n      jump\t// in\n    tag_119:\n        /* \"#utility.yul\":2853:2939   */\n      swap1\n      pop\n        /* \"#utility.yul\":2949:3017   */\n      tag_120\n        /* \"#utility.yul\":3013:3015   */\n      0x20\n        /* \"#utility.yul\":3002:3011   */\n      dup4\n        /* \"#utility.yul\":2998:3016   */\n      add\n        /* \"#utility.yul\":2989:2995   */\n      dup7\n        /* \"#utility.yul\":2949:3017   */\n      tag_68\n      jump\t// in\n    tag_120:\n        /* \"#utility.yul\":3064:3073   */\n      dup2\n        /* \"#utility.yul\":3058:3062   */\n      dup2\n        /* \"#utility.yul\":3054:3074   */\n      sub\n        /* \"#utility.yul\":3049:3051   */\n      0x40\n        /* \"#utility.yul\":3038:3047   */\n      dup4\n        /* \"#utility.yul\":3034:3052   */\n      add\n        /* \"#utility.yul\":3027:3075   */\n      mstore\n        /* \"#utility.yul\":3092:3170   */\n      tag_121\n        /* \"#utility.yul\":3165:3169   */\n      dup2\n        /* \"#utility.yul\":3156:3162   */\n      dup6\n        /* \"#utility.yul\":3092:3170   */\n      tag_66\n      jump\t// in\n    tag_121:\n        /* \"#utility.yul\":3084:3170   */\n      swap1\n      pop\n        /* \"#utility.yul\":3180:3250   */\n      tag_122\n        /* \"#utility.yul\":3246:3248   */\n      0x60\n        /* \"#utility.yul\":3235:3244   */\n      dup4\n        /* \"#utility.yul\":3231:3249   */\n      add\n        /* \"#utility.yul\":3222:3228   */\n      dup5\n        /* \"#utility.yul\":3180:3250   */\n      tag_70\n      jump\t// in\n    tag_122:\n        /* \"#utility.yul\":2534:3257   */\n      swap6\n      swap5\n      pop\n      pop\n      pop\n      pop\n      pop\n      jump\t// out\n        /* \"#utility.yul\":3263:3383   */\n    tag_71:\n        /* \"#utility.yul\":3335:3358   */\n      tag_124\n        /* \"#utility.yul\":3352:3357   */\n      dup2\n        /* \"#utility.yul\":3335:3358   */\n      tag_69\n      jump\t// in\n    tag_124:\n        /* \"#utility.yul\":3328:3333   */\n      dup2\n        /* \"#utility.yul\":3325:3359   */\n      eq\n        /* \"#utility.yul\":3315:3377   */\n      tag_125\n      jumpi\n        /* \"#utility.yul\":3373:3374   */\n      0x00\n        /* \"#utility.yul\":3370:3371   */\n      dup1\n        /* \"#utility.yul\":3363:3375   */\n      revert\n        /* \"#utility.yul\":3315:3377   */\n    tag_125:\n        /* \"#utility.yul\":3263:3383   */\n      pop\n      jump\t// out\n        /* \"#utility.yul\":3389:3526   */\n    tag_72:\n        /* \"#utility.yul\":3434:3439   */\n      0x00\n        /* \"#utility.yul\":3472:3478   */\n      dup2\n        /* \"#utility.yul\":3459:3479   */\n      calldataload\n        /* \"#utility.yul\":3450:3479   */\n      swap1\n      pop\n        /* \"#utility.yul\":3488:3520   */\n      tag_127\n        /* \"#utility.yul\":3514:3519   */\n      dup2\n        /* \"#utility.yul\":3488:3520   */\n      tag_71\n      jump\t// in\n    tag_127:\n        /* \"#utility.yul\":3389:3526   */\n      swap3\n      swap2\n      pop\n      pop\n      jump\t// out\n        /* \"#utility.yul\":3532:3859   */\n    tag_14:\n        /* \"#utility.yul\":3590:3596   */\n      0x00\n        /* \"#utility.yul\":3639:3641   */\n      0x20\n        /* \"#utility.yul\":3627:3636   */\n      dup3\n        /* \"#utility.yul\":3618:3625   */\n      dup5\n        /* \"#utility.yul\":3614:3637   */\n      sub\n        /* \"#utility.yul\":3610:3642   */\n      slt\n        /* \"#utility.yul\":3607:3726   */\n      iszero\n      tag_129\n      jumpi\n        /* \"#utility.yul\":3645:3724   */\n      tag_130\n      tag_57\n      jump\t// in\n    tag_130:\n        /* \"#utility.yul\":3607:3726   */\n    tag_129:\n        /* \"#utility.yul\":3765:3766   */\n      0x00\n        /* \"#utility.yul\":3790:3842   */\n      tag_131\n        /* \"#utility.yul\":3834:3841   */\n      dup5\n        /* \"#utility.yul\":3825:3831   */\n      dup3\n        /* \"#utility.yul\":3814:3823   */\n      dup6\n        /* \"#utility.yul\":3810:3832   */\n      add\n        /* \"#utility.yul\":3790:3842   */\n      tag_72\n      jump\t// in\n    tag_131:\n        /* \"#utility.yul\":3780:3842   */\n      swap2\n      pop\n        /* \"#utility.yul\":3736:3852   */\n      pop\n        /* \"#utility.yul\":3532:3859   */\n      swap3\n      swap2\n      pop\n      pop\n      jump\t// out\n        /* \"#utility.yul\":3865:4178   */\n    tag_17:\n        /* \"#utility.yul\":3978:3982   */\n      0x00\n        /* \"#utility.yul\":4016:4018   */\n      0x20\n        /* \"#utility.yul\":4005:4014   */\n      dup3\n        /* \"#utility.yul\":4001:4019   */\n      add\n        /* \"#utility.yul\":3993:4019   */\n      swap1\n      pop\n        /* \"#utility.yul\":4065:4074   */\n      dup2\n        /* \"#utility.yul\":4059:4063   */\n      dup2\n        /* \"#utility.yul\":4055:4075   */\n      sub\n        /* \"#utility.yul\":4051:4052   */\n      0x00\n        /* \"#utility.yul\":4040:4049   */\n      dup4\n        /* \"#utility.yul\":4036:4053   */\n      add\n        /* \"#utility.yul\":4029:4076   */\n      mstore\n        /* \"#utility.yul\":4093:4171   */\n      tag_133\n        /* \"#utility.yul\":4166:4170   */\n      dup2\n        /* \"#utility.yul\":4157:4163   */\n      dup5\n        /* \"#utility.yul\":4093:4171   */\n      tag_66\n      jump\t// in\n    tag_133:\n        /* \"#utility.yul\":4085:4171   */\n      swap1\n      pop\n        /* \"#utility.yul\":3865:4178   */\n      swap3\n      swap2\n      pop\n      pop\n      jump\t// out\n        /* \"#utility.yul\":4184:4301   */\n    tag_73:\n        /* \"#utility.yul\":4293:4294   */\n      0x00\n        /* \"#utility.yul\":4290:4291   */\n      dup1\n        /* \"#utility.yul\":4283:4295   */\n      revert\n        /* \"#utility.yul\":4307:4424   */\n    tag_74:\n        /* \"#utility.yul\":4416:4417   */\n      0x00\n        /* \"#utility.yul\":4413:4414   */\n      dup1\n        /* \"#utility.yul\":4406:4418   */\n      revert\n        /* \"#utility.yul\":4430:4610   */\n    tag_75:\n        /* \"#utility.yul\":4478:4555   */\n      0x4e487b7100000000000000000000000000000000000000000000000000000000\n        /* \"#utility.yul\":4475:4476   */\n      0x00\n        /* \"#utility.yul\":4468:4556   */\n      mstore\n        /* \"#utility.yul\":4575:4579   */\n      0x41\n        /* \"#utility.yul\":4572:4573   */\n      0x04\n        /* \"#utility.yul\":4565:4580   */\n      mstore\n        /* \"#utility.yul\":4599:4603   */\n      0x24\n        /* \"#utility.yul\":4596:4597   */\n      0x00\n        /* \"#utility.yul\":4589:4604   */\n      revert\n        /* \"#utility.yul\":4616:4897   */\n    tag_76:\n        /* \"#utility.yul\":4699:4726   */\n      tag_138\n        /* \"#utility.yul\":4721:4725   */\n      dup3\n        /* \"#utility.yul\":4699:4726   */\n      tag_65\n      jump\t// in\n    tag_138:\n        /* \"#utility.yul\":4691:4697   */\n      dup2\n        /* \"#utility.yul\":4687:4727   */\n      add\n        /* \"#utility.yul\":4829:4835   */\n      dup2\n        /* \"#utility.yul\":4817:4827   */\n      dup2\n        /* \"#utility.yul\":4814:4836   */\n      lt\n        /* \"#utility.yul\":4793:4811   */\n      0xffffffffffffffff\n        /* \"#utility.yul\":4781:4791   */\n      dup3\n        /* \"#utility.yul\":4778:4812   */\n      gt\n        /* \"#utility.yul\":4775:4837   */\n      or\n        /* \"#utility.yul\":4772:4860   */\n      iszero\n      tag_139\n      jumpi\n        /* \"#utility.yul\":4840:4858   */\n      tag_140\n      tag_75\n      jump\t// in\n    tag_140:\n        /* \"#utility.yul\":4772:4860   */\n    tag_139:\n        /* \"#utility.yul\":4880:4890   */\n      dup1\n        /* \"#utility.yul\":4876:4878   */\n      0x40\n        /* \"#utility.yul\":4869:4891   */\n      mstore\n        /* \"#utility.yul\":4659:4897   */\n      pop\n        /* \"#utility.yul\":4616:4897   */\n      pop\n      pop\n      jump\t// out\n        /* \"#utility.yul\":4903:5032   */\n    tag_77:\n        /* \"#utility.yul\":4937:4943   */\n      0x00\n        /* \"#utility.yul\":4964:4984   */\n      tag_142\n      tag_56\n      jump\t// in\n    tag_142:\n        /* \"#utility.yul\":4954:4984   */\n      swap1\n      pop\n        /* \"#utility.yul\":4993:5026   */\n      tag_143\n        /* \"#utility.yul\":5021:5025   */\n      dup3\n        /* \"#utility.yul\":5013:5019   */\n      dup3\n        /* \"#utility.yul\":4993:5026   */\n      tag_76\n      jump\t// in\n    tag_143:\n        /* \"#utility.yul\":4903:5032   */\n      swap2\n      swap1\n      pop\n      jump\t// out\n        /* \"#utility.yul\":5038:5346   */\n    tag_78:\n        /* \"#utility.yul\":5100:5104   */\n      0x00\n        /* \"#utility.yul\":5190:5208   */\n      0xffffffffffffffff\n        /* \"#utility.yul\":5182:5188   */\n      dup3\n        /* \"#utility.yul\":5179:5209   */\n      gt\n        /* \"#utility.yul\":5176:5232   */\n      iszero\n      tag_145\n      jumpi\n        /* \"#utility.yul\":5212:5230   */\n      tag_146\n      tag_75\n      jump\t// in\n    tag_146:\n        /* \"#utility.yul\":5176:5232   */\n    tag_145:\n        /* \"#utility.yul\":5250:5279   */\n      tag_147\n        /* \"#utility.yul\":5272:5278   */\n      dup3\n        /* \"#utility.yul\":5250:5279   */\n      tag_65\n      jump\t// in\n    tag_147:\n        /* \"#utility.yul\":5242:5279   */\n      swap1\n      pop\n        /* \"#utility.yul\":5334:5338   */\n      0x20\n        /* \"#utility.yul\":5328:5332   */\n      dup2\n        /* \"#utility.yul\":5324:5339   */\n      add\n        /* \"#utility.yul\":5316:5339   */\n      swap1\n      pop\n        /* \"#utility.yul\":5038:5346   */\n      swap2\n      swap1\n      pop\n      jump\t// out\n        /* \"#utility.yul\":5352:5506   */\n    tag_79:\n        /* \"#utility.yul\":5436:5442   */\n      dup3\n        /* \"#utility.yul\":5431:5434   */\n      dup2\n        /* \"#utility.yul\":5426:5429   */\n      dup4\n        /* \"#utility.yul\":5413:5443   */\n      calldatacopy\n        /* \"#utility.yul\":5498:5499   */\n      0x00\n        /* \"#utility.yul\":5489:5495   */\n      dup4\n        /* \"#utility.yul\":5484:5487   */\n      dup4\n        /* \"#utility.yul\":5480:5496   */\n      add\n        /* \"#utility.yul\":5473:5500   */\n      mstore\n        /* \"#utility.yul\":5352:5506   */\n      pop\n      pop\n      pop\n      jump\t// out\n        /* \"#utility.yul\":5512:5924   */\n    tag_80:\n        /* \"#utility.yul\":5590:5595   */\n      0x00\n        /* \"#utility.yul\":5615:5681   */\n      tag_150\n        /* \"#utility.yul\":5631:5680   */\n      tag_151\n        /* \"#utility.yul\":5673:5679   */\n      dup5\n        /* \"#utility.yul\":5631:5680   */\n      tag_78\n      jump\t// in\n    tag_151:\n        /* \"#utility.yul\":5615:5681   */\n      tag_77\n      jump\t// in\n    tag_150:\n        /* \"#utility.yul\":5606:5681   */\n      swap1\n      pop\n        /* \"#utility.yul\":5704:5710   */\n      dup3\n        /* \"#utility.yul\":5697:5702   */\n      dup2\n        /* \"#utility.yul\":5690:5711   */\n      mstore\n        /* \"#utility.yul\":5742:5746   */\n      0x20\n        /* \"#utility.yul\":5735:5740   */\n      dup2\n        /* \"#utility.yul\":5731:5747   */\n      add\n        /* \"#utility.yul\":5780:5783   */\n      dup5\n        /* \"#utility.yul\":5771:5777   */\n      dup5\n        /* \"#utility.yul\":5766:5769   */\n      dup5\n        /* \"#utility.yul\":5762:5778   */\n      add\n        /* \"#utility.yul\":5759:5784   */\n      gt\n        /* \"#utility.yul\":5756:5868   */\n      iszero\n      tag_152\n      jumpi\n        /* \"#utility.yul\":5787:5866   */\n      tag_153\n      tag_74\n      jump\t// in\n    tag_153:\n        /* \"#utility.yul\":5756:5868   */\n    tag_152:\n        /* \"#utility.yul\":5877:5918   */\n      tag_154\n        /* \"#utility.yul\":5911:5917   */\n      dup5\n        /* \"#utility.yul\":5906:5909   */\n      dup3\n        /* \"#utility.yul\":5901:5904   */\n      dup6\n        /* \"#utility.yul\":5877:5918   */\n      tag_79\n      jump\t// in\n    tag_154:\n        /* \"#utility.yul\":5596:5924   */\n      pop\n        /* \"#utility.yul\":5512:5924   */\n      swap4\n      swap3\n      pop\n      pop\n      pop\n      jump\t// out\n        /* \"#utility.yul\":5944:6284   */\n    tag_81:\n        /* \"#utility.yul\":6000:6005   */\n      0x00\n        /* \"#utility.yul\":6049:6052   */\n      dup3\n        /* \"#utility.yul\":6042:6046   */\n      0x1f\n        /* \"#utility.yul\":6034:6040   */\n      dup4\n        /* \"#utility.yul\":6030:6047   */\n      add\n        /* \"#utility.yul\":6026:6053   */\n      slt\n        /* \"#utility.yul\":6016:6138   */\n      tag_156\n      jumpi\n        /* \"#utility.yul\":6057:6136   */\n      tag_157\n      tag_73\n      jump\t// in\n    tag_157:\n        /* \"#utility.yul\":6016:6138   */\n    tag_156:\n        /* \"#utility.yul\":6174:6180   */\n      dup2\n        /* \"#utility.yul\":6161:6181   */\n      calldataload\n        /* \"#utility.yul\":6199:6278   */\n      tag_158\n        /* \"#utility.yul\":6274:6277   */\n      dup5\n        /* \"#utility.yul\":6266:6272   */\n      dup3\n        /* \"#utility.yul\":6259:6263   */\n      0x20\n        /* \"#utility.yul\":6251:6257   */\n      dup7\n        /* \"#utility.yul\":6247:6264   */\n      add\n        /* \"#utility.yul\":6199:6278   */\n      tag_80\n      jump\t// in\n    tag_158:\n        /* \"#utility.yul\":6190:6278   */\n      swap2\n      pop\n        /* \"#utility.yul\":6006:6284   */\n      pop\n        /* \"#utility.yul\":5944:6284   */\n      swap3\n      swap2\n      pop\n      pop\n      jump\t// out\n        /* \"#utility.yul\":6290:6408   */\n    tag_82:\n        /* \"#utility.yul\":6361:6383   */\n      tag_160\n        /* \"#utility.yul\":6377:6382   */\n      dup2\n        /* \"#utility.yul\":6361:6383   */\n      tag_67\n      jump\t// in\n    tag_160:\n        /* \"#utility.yul\":6354:6359   */\n      dup2\n        /* \"#utility.yul\":6351:6384   */\n      eq\n        /* \"#utility.yul\":6341:6402   */\n      tag_161\n      jumpi\n        /* \"#utility.yul\":6398:6399   */\n      0x00\n        /* \"#utility.yul\":6395:6396   */\n      dup1\n        /* \"#utility.yul\":6388:6400   */\n      revert\n        /* \"#utility.yul\":6341:6402   */\n    tag_161:\n        /* \"#utility.yul\":6290:6408   */\n      pop\n      jump\t// out\n        /* \"#utility.yul\":6414:6549   */\n    tag_83:\n        /* \"#utility.yul\":6458:6463   */\n      0x00\n        /* \"#utility.yul\":6496:6502   */\n      dup2\n        /* \"#utility.yul\":6483:6503   */\n      calldataload\n        /* \"#utility.yul\":6474:6503   */\n      swap1\n      pop\n        /* \"#utility.yul\":6512:6543   */\n      tag_163\n        /* \"#utility.yul\":6537:6542   */\n      dup2\n        /* \"#utility.yul\":6512:6543   */\n      tag_82\n      jump\t// in\n    tag_163:\n        /* \"#utility.yul\":6414:6549   */\n      swap3\n      swap2\n      pop\n      pop\n      jump\t// out\n        /* \"#utility.yul\":6555:7674   */\n    tag_20:\n        /* \"#utility.yul\":6658:6664   */\n      0x00\n        /* \"#utility.yul\":6666:6672   */\n      dup1\n        /* \"#utility.yul\":6674:6680   */\n      0x00\n        /* \"#utility.yul\":6682:6688   */\n      dup1\n        /* \"#utility.yul\":6731:6734   */\n      0x80\n        /* \"#utility.yul\":6719:6728   */\n      dup6\n        /* \"#utility.yul\":6710:6717   */\n      dup8\n        /* \"#utility.yul\":6706:6729   */\n      sub\n        /* \"#utility.yul\":6702:6735   */\n      slt\n        /* \"#utility.yul\":6699:6819   */\n      iszero\n      tag_165\n      jumpi\n        /* \"#utility.yul\":6738:6817   */\n      tag_166\n      tag_57\n      jump\t// in\n    tag_166:\n        /* \"#utility.yul\":6699:6819   */\n    tag_165:\n        /* \"#utility.yul\":6886:6887   */\n      0x00\n        /* \"#utility.yul\":6875:6884   */\n      dup6\n        /* \"#utility.yul\":6871:6888   */\n      add\n        /* \"#utility.yul\":6858:6889   */\n      calldataload\n        /* \"#utility.yul\":6916:6934   */\n      0xffffffffffffffff\n        /* \"#utility.yul\":6908:6914   */\n      dup2\n        /* \"#utility.yul\":6905:6935   */\n      gt\n        /* \"#utility.yul\":6902:7019   */\n      iszero\n      tag_167\n      jumpi\n        /* \"#utility.yul\":6938:7017   */\n      tag_168\n      tag_58\n      jump\t// in\n    tag_168:\n        /* \"#utility.yul\":6902:7019   */\n    tag_167:\n        /* \"#utility.yul\":7043:7106   */\n      tag_169\n        /* \"#utility.yul\":7098:7105   */\n      dup8\n        /* \"#utility.yul\":7089:7095   */\n      dup3\n        /* \"#utility.yul\":7078:7087   */\n      dup9\n        /* \"#utility.yul\":7074:7096   */\n      add\n        /* \"#utility.yul\":7043:7106   */\n      tag_81\n      jump\t// in\n    tag_169:\n        /* \"#utility.yul\":7033:7106   */\n      swap5\n      pop\n        /* \"#utility.yul\":6829:7116   */\n      pop\n        /* \"#utility.yul\":7155:7157   */\n      0x20\n        /* \"#utility.yul\":7181:7232   */\n      tag_170\n        /* \"#utility.yul\":7224:7231   */\n      dup8\n        /* \"#utility.yul\":7215:7221   */\n      dup3\n        /* \"#utility.yul\":7204:7213   */\n      dup9\n        /* \"#utility.yul\":7200:7222   */\n      add\n        /* \"#utility.yul\":7181:7232   */\n      tag_83\n      jump\t// in\n    tag_170:\n        /* \"#utility.yul\":7171:7232   */\n      swap4\n      pop\n        /* \"#utility.yul\":7126:7242   */\n      pop\n        /* \"#utility.yul\":7309:7311   */\n      0x40\n        /* \"#utility.yul\":7298:7307   */\n      dup6\n        /* \"#utility.yul\":7294:7312   */\n      add\n        /* \"#utility.yul\":7281:7313   */\n      calldataload\n        /* \"#utility.yul\":7340:7358   */\n      0xffffffffffffffff\n        /* \"#utility.yul\":7332:7338   */\n      dup2\n        /* \"#utility.yul\":7329:7359   */\n      gt\n        /* \"#utility.yul\":7326:7443   */\n      iszero\n      tag_171\n      jumpi\n        /* \"#utility.yul\":7362:7441   */\n      tag_172\n      tag_58\n      jump\t// in\n    tag_172:\n        /* \"#utility.yul\":7326:7443   */\n    tag_171:\n        /* \"#utility.yul\":7467:7530   */\n      tag_173\n        /* \"#utility.yul\":7522:7529   */\n      dup8\n        /* \"#utility.yul\":7513:7519   */\n      dup3\n        /* \"#utility.yul\":7502:7511   */\n      dup9\n        /* \"#utility.yul\":7498:7520   */\n      add\n        /* \"#utility.yul\":7467:7530   */\n      tag_81\n      jump\t// in\n    tag_173:\n        /* \"#utility.yul\":7457:7530   */\n      swap3\n      pop\n        /* \"#utility.yul\":7252:7540   */\n      pop\n        /* \"#utility.yul\":7579:7581   */\n      0x60\n        /* \"#utility.yul\":7605:7657   */\n      tag_174\n        /* \"#utility.yul\":7649:7656   */\n      dup8\n        /* \"#utility.yul\":7640:7646   */\n      dup3\n        /* \"#utility.yul\":7629:7638   */\n      dup9\n        /* \"#utility.yul\":7625:7647   */\n      add\n        /* \"#utility.yul\":7605:7657   */\n      tag_72\n      jump\t// in\n    tag_174:\n        /* \"#utility.yul\":7595:7657   */\n      swap2\n      pop\n        /* \"#utility.yul\":7550:7667   */\n      pop\n        /* \"#utility.yul\":6555:7674   */\n      swap3\n      swap6\n      swap2\n      swap5\n      pop\n      swap3\n      pop\n      jump\t// out\n        /* \"#utility.yul\":7680:7860   */\n    tag_84:\n        /* \"#utility.yul\":7728:7805   */\n      0x4e487b7100000000000000000000000000000000000000000000000000000000\n        /* \"#utility.yul\":7725:7726   */\n      0x00\n        /* \"#utility.yul\":7718:7806   */\n      mstore\n        /* \"#utility.yul\":7825:7829   */\n      0x22\n        /* \"#utility.yul\":7822:7823   */\n      0x04\n        /* \"#utility.yul\":7815:7830   */\n      mstore\n        /* \"#utility.yul\":7849:7853   */\n      0x24\n        /* \"#utility.yul\":7846:7847   */\n      0x00\n        /* \"#utility.yul\":7839:7854   */\n      revert\n        /* \"#utility.yul\":7866:8186   */\n    tag_25:\n        /* \"#utility.yul\":7910:7916   */\n      0x00\n        /* \"#utility.yul\":7947:7948   */\n      0x02\n        /* \"#utility.yul\":7941:7945   */\n      dup3\n        /* \"#utility.yul\":7937:7949   */\n      div\n        /* \"#utility.yul\":7927:7949   */\n      swap1\n      pop\n        /* \"#utility.yul\":7994:7995   */\n      0x01\n        /* \"#utility.yul\":7988:7992   */\n      dup3\n        /* \"#utility.yul\":7984:7996   */\n      and\n        /* \"#utility.yul\":8015:8033   */\n      dup1\n        /* \"#utility.yul\":8005:8086   */\n      tag_177\n      jumpi\n        /* \"#utility.yul\":8071:8075   */\n      0x7f\n        /* \"#utility.yul\":8063:8069   */\n      dup3\n        /* \"#utility.yul\":8059:8076   */\n      and\n        /* \"#utility.yul\":8049:8076   */\n      swap2\n      pop\n        /* \"#utility.yul\":8005:8086   */\n    tag_177:\n        /* \"#utility.yul\":8133:8135   */\n      0x20\n        /* \"#utility.yul\":8125:8131   */\n      dup3\n        /* \"#utility.yul\":8122:8136   */\n      lt\n        /* \"#utility.yul\":8102:8120   */\n      dup2\n        /* \"#utility.yul\":8099:8137   */\n      eq\n        /* \"#utility.yul\":8096:8180   */\n      iszero\n      tag_178\n      jumpi\n        /* \"#utility.yul\":8152:8170   */\n      tag_179\n      tag_84\n      jump\t// in\n    tag_179:\n        /* \"#utility.yul\":8096:8180   */\n    tag_178:\n        /* \"#utility.yul\":7917:8186   */\n      pop\n        /* \"#utility.yul\":7866:8186   */\n      swap2\n      swap1\n      pop\n      jump\t// out\n\n    auxdata: 0xa2646970667358221220dc3ffa07676b75f3d438516874f4e5724f41e00595588c861551db661637daf164736f6c63430008080033\n}\n",
				"bytecode": {
					"linkReferences": {},
					"object": "608060405234801561001057600080fd5b50610959806100206000396000f3fe608060405234801561001057600080fd5b50600436106100415760003560e01c806306ead22e146100465780634ee81e161461007957806356f6f438146100a9575b600080fd5b610060600480360381019061005b91906104ef565b6100c5565b60405161007094939291906105f4565b60405180910390f35b610093600480360381019061008e9190610673565b610236565b6040516100a091906106a0565b60405180910390f35b6100c360048036038101906100be9190610823565b6102d6565b005b600181815481106100d557600080fd5b90600052602060002090600402016000915090508060000180546100f8906108f1565b80601f0160208091040260200160405190810160405280929190818152602001828054610124906108f1565b80156101715780601f1061014657610100808354040283529160200191610171565b820191906000526020600020905b81548152906001019060200180831161015457829003601f168201915b5050505050908060010160009054906101000a900460ff1690806002018054610199906108f1565b80601f01602080910402602001604051908101604052809291908181526020018280546101c5906108f1565b80156102125780601f106101e757610100808354040283529160200191610212565b820191906000526020600020905b8154815290600101906020018083116101f557829003601f168201915b5050505050908060030160009054906101000a900467ffffffffffffffff16905084565b60006020528060005260406000206000915090508054610255906108f1565b80601f0160208091040260200160405190810160405280929190818152602001828054610281906108f1565b80156102ce5780601f106102a3576101008083540402835291602001916102ce565b820191906000526020600020905b8154815290600101906020018083116102b157829003601f168201915b505050505081565b600060405180608001604052808681526020018560ff1681526020018481526020018367ffffffffffffffff16815250905060018190806001815401808255809150506001900390600052602060002090600402016000909190919091506000820151816000019080519060200190610350929190610402565b5060208201518160010160006101000a81548160ff021916908360ff160217905550604082015181600201908051906020019061038e929190610402565b5060608201518160030160006101000a81548167ffffffffffffffff021916908367ffffffffffffffff1602179055505050846000808467ffffffffffffffff1667ffffffffffffffff16815260200190815260200160002090805190602001906103fa929190610402565b505050505050565b82805461040e906108f1565b90600052602060002090601f0160209004810192826104305760008555610477565b82601f1061044957805160ff1916838001178555610477565b82800160010185558215610477579182015b8281111561047657825182559160200191906001019061045b565b5b5090506104849190610488565b5090565b5b808211156104a1576000816000905550600101610489565b5090565b6000604051905090565b600080fd5b600080fd5b6000819050919050565b6104cc816104b9565b81146104d757600080fd5b50565b6000813590506104e9816104c3565b92915050565b600060208284031215610505576105046104af565b5b6000610513848285016104da565b91505092915050565b600081519050919050565b600082825260208201905092915050565b60005b8381101561055657808201518184015260208101905061053b565b83811115610565576000848401525b50505050565b6000601f19601f8301169050919050565b60006105878261051c565b6105918185610527565b93506105a1818560208601610538565b6105aa8161056b565b840191505092915050565b600060ff82169050919050565b6105cb816105b5565b82525050565b600067ffffffffffffffff82169050919050565b6105ee816105d1565b82525050565b6000608082019050818103600083015261060e818761057c565b905061061d60208301866105c2565b818103604083015261062f818561057c565b905061063e60608301846105e5565b95945050505050565b610650816105d1565b811461065b57600080fd5b50565b60008135905061066d81610647565b92915050565b600060208284031215610689576106886104af565b5b60006106978482850161065e565b91505092915050565b600060208201905081810360008301526106ba818461057c565b905092915050565b600080fd5b600080fd5b7f4e487b7100000000000000000000000000000000000000000000000000000000600052604160045260246000fd5b6107048261056b565b810181811067ffffffffffffffff82111715610723576107226106cc565b5b80604052505050565b60006107366104a5565b905061074282826106fb565b919050565b600067ffffffffffffffff821115610762576107616106cc565b5b61076b8261056b565b9050602081019050919050565b82818337600083830152505050565b600061079a61079584610747565b61072c565b9050828152602081018484840111156107b6576107b56106c7565b5b6107c1848285610778565b509392505050565b600082601f8301126107de576107dd6106c2565b5b81356107ee848260208601610787565b91505092915050565b610800816105b5565b811461080b57600080fd5b50565b60008135905061081d816107f7565b92915050565b6000806000806080858703121561083d5761083c6104af565b5b600085013567ffffffffffffffff81111561085b5761085a6104b4565b5b610867878288016107c9565b94505060206108788782880161080e565b935050604085013567ffffffffffffffff811115610899576108986104b4565b5b6108a5878288016107c9565b92505060606108b68782880161065e565b91505092959194509250565b7f4e487b7100000000000000000000000000000000000000000000000000000000600052602260045260246000fd5b6000600282049050600182168061090957607f821691505b6020821081141561091d5761091c6108c2565b5b5091905056fea2646970667358221220dc3ffa07676b75f3d438516874f4e5724f41e00595588c861551db661637daf164736f6c63430008080033",
					"opcodes": "PUSH1 0x80 PUSH1 0x40 MSTORE CALLVALUE DUP1 ISZERO PUSH2 0x10 JUMPI PUSH1 0x0 DUP1 REVERT JUMPDEST POP PUSH2 0x959 DUP1 PUSH2 0x20 PUSH1 0x0 CODECOPY PUSH1 0x0 RETURN INVALID PUSH1 0x80 PUSH1 0x40 MSTORE CALLVALUE DUP1 ISZERO PUSH2 0x10 JUMPI PUSH1 0x0 DUP1 REVERT JUMPDEST POP PUSH1 0x4 CALLDATASIZE LT PUSH2 0x41 JUMPI PUSH1 0x0 CALLDATALOAD PUSH1 0xE0 SHR DUP1 PUSH4 0x6EAD22E EQ PUSH2 0x46 JUMPI DUP1 PUSH4 0x4EE81E16 EQ PUSH2 0x79 JUMPI DUP1 PUSH4 0x56F6F438 EQ PUSH2 0xA9 JUMPI JUMPDEST PUSH1 0x0 DUP1 REVERT JUMPDEST PUSH2 0x60 PUSH1 0x4 DUP1 CALLDATASIZE SUB DUP2 ADD SWAP1 PUSH2 0x5B SWAP2 SWAP1 PUSH2 0x4EF JUMP JUMPDEST PUSH2 0xC5 JUMP JUMPDEST PUSH1 0x40 MLOAD PUSH2 0x70 SWAP5 SWAP4 SWAP3 SWAP2 SWAP1 PUSH2 0x5F4 JUMP JUMPDEST PUSH1 0x40 MLOAD DUP1 SWAP2 SUB SWAP1 RETURN JUMPDEST PUSH2 0x93 PUSH1 0x4 DUP1 CALLDATASIZE SUB DUP2 ADD SWAP1 PUSH2 0x8E SWAP2 SWAP1 PUSH2 0x673 JUMP JUMPDEST PUSH2 0x236 JUMP JUMPDEST PUSH1 0x40 MLOAD PUSH2 0xA0 SWAP2 SWAP1 PUSH2 0x6A0 JUMP JUMPDEST PUSH1 0x40 MLOAD DUP1 SWAP2 SUB SWAP1 RETURN JUMPDEST PUSH2 0xC3 PUSH1 0x4 DUP1 CALLDATASIZE SUB DUP2 ADD SWAP1 PUSH2 0xBE SWAP2 SWAP1 PUSH2 0x823 JUMP JUMPDEST PUSH2 0x2D6 JUMP JUMPDEST STOP JUMPDEST PUSH1 0x1 DUP2 DUP2 SLOAD DUP2 LT PUSH2 0xD5 JUMPI PUSH1 0x0 DUP1 REVERT JUMPDEST SWAP1 PUSH1 0x0 MSTORE PUSH1 0x20 PUSH1 0x0 KECCAK256 SWAP1 PUSH1 0x4 MUL ADD PUSH1 0x0 SWAP2 POP SWAP1 POP DUP1 PUSH1 0x0 ADD DUP1 SLOAD PUSH2 0xF8 SWAP1 PUSH2 0x8F1 JUMP JUMPDEST DUP1 PUSH1 0x1F ADD PUSH1 0x20 DUP1 SWAP2 DIV MUL PUSH1 0x20 ADD PUSH1 0x40 MLOAD SWAP1 DUP2 ADD PUSH1 0x40 MSTORE DUP1 SWAP3 SWAP2 SWAP1 DUP2 DUP2 MSTORE PUSH1 0x20 ADD DUP3 DUP1 SLOAD PUSH2 0x124 SWAP1 PUSH2 0x8F1 JUMP JUMPDEST DUP1 ISZERO PUSH2 0x171 JUMPI DUP1 PUSH1 0x1F LT PUSH2 0x146 JUMPI PUSH2 0x100 DUP1 DUP4 SLOAD DIV MUL DUP4 MSTORE SWAP2 PUSH1 0x20 ADD SWAP2 PUSH2 0x171 JUMP JUMPDEST DUP3 ADD SWAP2 SWAP1 PUSH1 0x0 MSTORE PUSH1 0x20 PUSH1 0x0 KECCAK256 SWAP1 JUMPDEST DUP2 SLOAD DUP2 MSTORE SWAP1 PUSH1 0x1 ADD SWAP1 PUSH1 0x20 ADD DUP1 DUP4 GT PUSH2 0x154 JUMPI DUP3 SWAP1 SUB PUSH1 0x1F AND DUP3 ADD SWAP2 JUMPDEST POP POP POP POP POP SWAP1 DUP1 PUSH1 0x1 ADD PUSH1 0x0 SWAP1 SLOAD SWAP1 PUSH2 0x100 EXP SWAP1 DIV PUSH1 0xFF AND SWAP1 DUP1 PUSH1 0x2 ADD DUP1 SLOAD PUSH2 0x199 SWAP1 PUSH2 0x8F1 JUMP JUMPDEST DUP1 PUSH1 0x1F ADD PUSH1 0x20 DUP1 SWAP2 DIV MUL PUSH1 0x20 ADD PUSH1 0x40 MLOAD SWAP1 DUP2 ADD PUSH1 0x40 MSTORE DUP1 SWAP3 SWAP2 SWAP1 DUP2 DUP2 MSTORE PUSH1 0x20 ADD DUP3 DUP1 SLOAD PUSH2 0x1C5 SWAP1 PUSH2 0x8F1 JUMP JUMPDEST DUP1 ISZERO PUSH2 0x212 JUMPI DUP1 PUSH1 0x1F LT PUSH2 0x1E7 JUMPI PUSH2 0x100 DUP1 DUP4 SLOAD DIV MUL DUP4 MSTORE SWAP2 PUSH1 0x20 ADD SWAP2 PUSH2 0x212 JUMP JUMPDEST DUP3 ADD SWAP2 SWAP1 PUSH1 0x0 MSTORE PUSH1 0x20 PUSH1 0x0 KECCAK256 SWAP1 JUMPDEST DUP2 SLOAD DUP2 MSTORE SWAP1 PUSH1 0x1 ADD SWAP1 PUSH1 0x20 ADD DUP1 DUP4 GT PUSH2 0x1F5 JUMPI DUP3 SWAP1 SUB PUSH1 0x1F AND DUP3 ADD SWAP2 JUMPDEST POP POP POP POP POP SWAP1 DUP1 PUSH1 0x3 ADD PUSH1 0x0 SWAP1 SLOAD SWAP1 PUSH2 0x100 EXP SWAP1 DIV PUSH8 0xFFFFFFFFFFFFFFFF AND SWAP1 POP DUP5 JUMP JUMPDEST PUSH1 0x0 PUSH1 0x20 MSTORE DUP1 PUSH1 0x0 MSTORE PUSH1 0x40 PUSH1 0x0 KECCAK256 PUSH1 0x0 SWAP2 POP SWAP1 POP DUP1 SLOAD PUSH2 0x255 SWAP1 PUSH2 0x8F1 JUMP JUMPDEST DUP1 PUSH1 0x1F ADD PUSH1 0x20 DUP1 SWAP2 DIV MUL PUSH1 0x20 ADD PUSH1 0x40 MLOAD SWAP1 DUP2 ADD PUSH1 0x40 MSTORE DUP1 SWAP3 SWAP2 SWAP1 DUP2 DUP2 MSTORE PUSH1 0x20 ADD DUP3 DUP1 SLOAD PUSH2 0x281 SWAP1 PUSH2 0x8F1 JUMP JUMPDEST DUP1 ISZERO PUSH2 0x2CE JUMPI DUP1 PUSH1 0x1F LT PUSH2 0x2A3 JUMPI PUSH2 0x100 DUP1 DUP4 SLOAD DIV MUL DUP4 MSTORE SWAP2 PUSH1 0x20 ADD SWAP2 PUSH2 0x2CE JUMP JUMPDEST DUP3 ADD SWAP2 SWAP1 PUSH1 0x0 MSTORE PUSH1 0x20 PUSH1 0x0 KECCAK256 SWAP1 JUMPDEST DUP2 SLOAD DUP2 MSTORE SWAP1 PUSH1 0x1 ADD SWAP1 PUSH1 0x20 ADD DUP1 DUP4 GT PUSH2 0x2B1 JUMPI DUP3 SWAP1 SUB PUSH1 0x1F AND DUP3 ADD SWAP2 JUMPDEST POP POP POP POP POP DUP2 JUMP JUMPDEST PUSH1 0x0 PUSH1 0x40 MLOAD DUP1 PUSH1 0x80 ADD PUSH1 0x40 MSTORE DUP1 DUP7 DUP2 MSTORE PUSH1 0x20 ADD DUP6 PUSH1 0xFF AND DUP2 MSTORE PUSH1 0x20 ADD DUP5 DUP2 MSTORE PUSH1 0x20 ADD DUP4 PUSH8 0xFFFFFFFFFFFFFFFF AND DUP2 MSTORE POP SWAP1 POP PUSH1 0x1 DUP2 SWAP1 DUP1 PUSH1 0x1 DUP2 SLOAD ADD DUP1 DUP3 SSTORE DUP1 SWAP2 POP POP PUSH1 0x1 SWAP1 SUB SWAP1 PUSH1 0x0 MSTORE PUSH1 0x20 PUSH1 0x0 KECCAK256 SWAP1 PUSH1 0x4 MUL ADD PUSH1 0x0 SWAP1 SWAP2 SWAP1 SWAP2 SWAP1 SWAP2 POP PUSH1 0x0 DUP3 ADD MLOAD DUP2 PUSH1 0x0 ADD SWAP1 DUP1 MLOAD SWAP1 PUSH1 0x20 ADD SWAP1 PUSH2 0x350 SWAP3 SWAP2 SWAP1 PUSH2 0x402 JUMP JUMPDEST POP PUSH1 0x20 DUP3 ADD MLOAD DUP2 PUSH1 0x1 ADD PUSH1 0x0 PUSH2 0x100 EXP DUP2 SLOAD DUP2 PUSH1 0xFF MUL NOT AND SWAP1 DUP4 PUSH1 0xFF AND MUL OR SWAP1 SSTORE POP PUSH1 0x40 DUP3 ADD MLOAD DUP2 PUSH1 0x2 ADD SWAP1 DUP1 MLOAD SWAP1 PUSH1 0x20 ADD SWAP1 PUSH2 0x38E SWAP3 SWAP2 SWAP1 PUSH2 0x402 JUMP JUMPDEST POP PUSH1 0x60 DUP3 ADD MLOAD DUP2 PUSH1 0x3 ADD PUSH1 0x0 PUSH2 0x100 EXP DUP2 SLOAD DUP2 PUSH8 0xFFFFFFFFFFFFFFFF MUL NOT AND SWAP1 DUP4 PUSH8 0xFFFFFFFFFFFFFFFF AND MUL OR SWAP1 SSTORE POP POP POP DUP5 PUSH1 0x0 DUP1 DUP5 PUSH8 0xFFFFFFFFFFFFFFFF AND PUSH8 0xFFFFFFFFFFFFFFFF AND DUP2 MSTORE PUSH1 0x20 ADD SWAP1 DUP2 MSTORE PUSH1 0x20 ADD PUSH1 0x0 KECCAK256 SWAP1 DUP1 MLOAD SWAP1 PUSH1 0x20 ADD SWAP1 PUSH2 0x3FA SWAP3 SWAP2 SWAP1 PUSH2 0x402 JUMP JUMPDEST POP POP POP POP POP POP JUMP JUMPDEST DUP3 DUP1 SLOAD PUSH2 0x40E SWAP1 PUSH2 0x8F1 JUMP JUMPDEST SWAP1 PUSH1 0x0 MSTORE PUSH1 0x20 PUSH1 0x0 KECCAK256 SWAP1 PUSH1 0x1F ADD PUSH1 0x20 SWAP1 DIV DUP2 ADD SWAP3 DUP3 PUSH2 0x430 JUMPI PUSH1 0x0 DUP6 SSTORE PUSH2 0x477 JUMP JUMPDEST DUP3 PUSH1 0x1F LT PUSH2 0x449 JUMPI DUP1 MLOAD PUSH1 0xFF NOT AND DUP4 DUP1 ADD OR DUP6 SSTORE PUSH2 0x477 JUMP JUMPDEST DUP3 DUP1 ADD PUSH1 0x1 ADD DUP6 SSTORE DUP3 ISZERO PUSH2 0x477 JUMPI SWAP2 DUP3 ADD JUMPDEST DUP3 DUP2 GT ISZERO PUSH2 0x476 JUMPI DUP3 MLOAD DUP3 SSTORE SWAP2 PUSH1 0x20 ADD SWAP2 SWAP1 PUSH1 0x1 ADD SWAP1 PUSH2 0x45B JUMP JUMPDEST JUMPDEST POP SWAP1 POP PUSH2 0x484 SWAP2 SWAP1 PUSH2 0x488 JUMP JUMPDEST POP SWAP1 JUMP JUMPDEST JUMPDEST DUP1 DUP3 GT ISZERO PUSH2 0x4A1 JUMPI PUSH1 0x0 DUP2 PUSH1 0x0 SWAP1 SSTORE POP PUSH1 0x1 ADD PUSH2 0x489 JUMP JUMPDEST POP SWAP1 JUMP JUMPDEST PUSH1 0x0 PUSH1 0x40 MLOAD SWAP1 POP SWAP1 JUMP JUMPDEST PUSH1 0x0 DUP1 REVERT JUMPDEST PUSH1 0x0 DUP1 REVERT JUMPDEST PUSH1 0x0 DUP2 SWAP1 POP SWAP2 SWAP1 POP JUMP JUMPDEST PUSH2 0x4CC DUP2 PUSH2 0x4B9 JUMP JUMPDEST DUP2 EQ PUSH2 0x4D7 JUMPI PUSH1 0x0 DUP1 REVERT JUMPDEST POP JUMP JUMPDEST PUSH1 0x0 DUP2 CALLDATALOAD SWAP1 POP PUSH2 0x4E9 DUP2 PUSH2 0x4C3 JUMP JUMPDEST SWAP3 SWAP2 POP POP JUMP JUMPDEST PUSH1 0x0 PUSH1 0x20 DUP3 DUP5 SUB SLT ISZERO PUSH2 0x505 JUMPI PUSH2 0x504 PUSH2 0x4AF JUMP JUMPDEST JUMPDEST PUSH1 0x0 PUSH2 0x513 DUP5 DUP3 DUP6 ADD PUSH2 0x4DA JUMP JUMPDEST SWAP2 POP POP SWAP3 SWAP2 POP POP JUMP JUMPDEST PUSH1 0x0 DUP2 MLOAD SWAP1 POP SWAP2 SWAP1 POP JUMP JUMPDEST PUSH1 0x0 DUP3 DUP3 MSTORE PUSH1 0x20 DUP3 ADD SWAP1 POP SWAP3 SWAP2 POP POP JUMP JUMPDEST PUSH1 0x0 JUMPDEST DUP4 DUP2 LT ISZERO PUSH2 0x556 JUMPI DUP1 DUP3 ADD MLOAD DUP2 DUP5 ADD MSTORE PUSH1 0x20 DUP2 ADD SWAP1 POP PUSH2 0x53B JUMP JUMPDEST DUP4 DUP2 GT ISZERO PUSH2 0x565 JUMPI PUSH1 0x0 DUP5 DUP5 ADD MSTORE JUMPDEST POP POP POP POP JUMP JUMPDEST PUSH1 0x0 PUSH1 0x1F NOT PUSH1 0x1F DUP4 ADD AND SWAP1 POP SWAP2 SWAP1 POP JUMP JUMPDEST PUSH1 0x0 PUSH2 0x587 DUP3 PUSH2 0x51C JUMP JUMPDEST PUSH2 0x591 DUP2 DUP6 PUSH2 0x527 JUMP JUMPDEST SWAP4 POP PUSH2 0x5A1 DUP2 DUP6 PUSH1 0x20 DUP7 ADD PUSH2 0x538 JUMP JUMPDEST PUSH2 0x5AA DUP2 PUSH2 0x56B JUMP JUMPDEST DUP5 ADD SWAP2 POP POP SWAP3 SWAP2 POP POP JUMP JUMPDEST PUSH1 0x0 PUSH1 0xFF DUP3 AND SWAP1 POP SWAP2 SWAP1 POP JUMP JUMPDEST PUSH2 0x5CB DUP2 PUSH2 0x5B5 JUMP JUMPDEST DUP3 MSTORE POP POP JUMP JUMPDEST PUSH1 0x0 PUSH8 0xFFFFFFFFFFFFFFFF DUP3 AND SWAP1 POP SWAP2 SWAP1 POP JUMP JUMPDEST PUSH2 0x5EE DUP2 PUSH2 0x5D1 JUMP JUMPDEST DUP3 MSTORE POP POP JUMP JUMPDEST PUSH1 0x0 PUSH1 0x80 DUP3 ADD SWAP1 POP DUP2 DUP2 SUB PUSH1 0x0 DUP4 ADD MSTORE PUSH2 0x60E DUP2 DUP8 PUSH2 0x57C JUMP JUMPDEST SWAP1 POP PUSH2 0x61D PUSH1 0x20 DUP4 ADD DUP7 PUSH2 0x5C2 JUMP JUMPDEST DUP2 DUP2 SUB PUSH1 0x40 DUP4 ADD MSTORE PUSH2 0x62F DUP2 DUP6 PUSH2 0x57C JUMP JUMPDEST SWAP1 POP PUSH2 0x63E PUSH1 0x60 DUP4 ADD DUP5 PUSH2 0x5E5 JUMP JUMPDEST SWAP6 SWAP5 POP POP POP POP POP JUMP JUMPDEST PUSH2 0x650 DUP2 PUSH2 0x5D1 JUMP JUMPDEST DUP2 EQ PUSH2 0x65B JUMPI PUSH1 0x0 DUP1 REVERT JUMPDEST POP JUMP JUMPDEST PUSH1 0x0 DUP2 CALLDATALOAD SWAP1 POP PUSH2 0x66D DUP2 PUSH2 0x647 JUMP JUMPDEST SWAP3 SWAP2 POP POP JUMP JUMPDEST PUSH1 0x0 PUSH1 0x20 DUP3 DUP5 SUB SLT ISZERO PUSH2 0x689 JUMPI PUSH2 0x688 PUSH2 0x4AF JUMP JUMPDEST JUMPDEST PUSH1 0x0 PUSH2 0x697 DUP5 DUP3 DUP6 ADD PUSH2 0x65E JUMP JUMPDEST SWAP2 POP POP SWAP3 SWAP2 POP POP JUMP JUMPDEST PUSH1 0x0 PUSH1 0x20 DUP3 ADD SWAP1 POP DUP2 DUP2 SUB PUSH1 0x0 DUP4 ADD MSTORE PUSH2 0x6BA DUP2 DUP5 PUSH2 0x57C JUMP JUMPDEST SWAP1 POP SWAP3 SWAP2 POP POP JUMP JUMPDEST PUSH1 0x0 DUP1 REVERT JUMPDEST PUSH1 0x0 DUP1 REVERT JUMPDEST PUSH32 0x4E487B7100000000000000000000000000000000000000000000000000000000 PUSH1 0x0 MSTORE PUSH1 0x41 PUSH1 0x4 MSTORE PUSH1 0x24 PUSH1 0x0 REVERT JUMPDEST PUSH2 0x704 DUP3 PUSH2 0x56B JUMP JUMPDEST DUP2 ADD DUP2 DUP2 LT PUSH8 0xFFFFFFFFFFFFFFFF DUP3 GT OR ISZERO PUSH2 0x723 JUMPI PUSH2 0x722 PUSH2 0x6CC JUMP JUMPDEST JUMPDEST DUP1 PUSH1 0x40 MSTORE POP POP POP JUMP JUMPDEST PUSH1 0x0 PUSH2 0x736 PUSH2 0x4A5 JUMP JUMPDEST SWAP1 POP PUSH2 0x742 DUP3 DUP3 PUSH2 0x6FB JUMP JUMPDEST SWAP2 SWAP1 POP JUMP JUMPDEST PUSH1 0x0 PUSH8 0xFFFFFFFFFFFFFFFF DUP3 GT ISZERO PUSH2 0x762 JUMPI PUSH2 0x761 PUSH2 0x6CC JUMP JUMPDEST JUMPDEST PUSH2 0x76B DUP3 PUSH2 0x56B JUMP JUMPDEST SWAP1 POP PUSH1 0x20 DUP2 ADD SWAP1 POP SWAP2 SWAP1 POP JUMP JUMPDEST DUP3 DUP2 DUP4 CALLDATACOPY PUSH1 0x0 DUP4 DUP4 ADD MSTORE POP POP POP JUMP JUMPDEST PUSH1 0x0 PUSH2 0x79A PUSH2 0x795 DUP5 PUSH2 0x747 JUMP JUMPDEST PUSH2 0x72C JUMP JUMPDEST SWAP1 POP DUP3 DUP2 MSTORE PUSH1 0x20 DUP2 ADD DUP5 DUP5 DUP5 ADD GT ISZERO PUSH2 0x7B6 JUMPI PUSH2 0x7B5 PUSH2 0x6C7 JUMP JUMPDEST JUMPDEST PUSH2 0x7C1 DUP5 DUP3 DUP6 PUSH2 0x778 JUMP JUMPDEST POP SWAP4 SWAP3 POP POP POP JUMP JUMPDEST PUSH1 0x0 DUP3 PUSH1 0x1F DUP4 ADD SLT PUSH2 0x7DE JUMPI PUSH2 0x7DD PUSH2 0x6C2 JUMP JUMPDEST JUMPDEST DUP2 CALLDATALOAD PUSH2 0x7EE DUP5 DUP3 PUSH1 0x20 DUP7 ADD PUSH2 0x787 JUMP JUMPDEST SWAP2 POP POP SWAP3 SWAP2 POP POP JUMP JUMPDEST PUSH2 0x800 DUP2 PUSH2 0x5B5 JUMP JUMPDEST DUP2 EQ PUSH2 0x80B JUMPI PUSH1 0x0 DUP1 REVERT JUMPDEST POP JUMP JUMPDEST PUSH1 0x0 DUP2 CALLDATALOAD SWAP1 POP PUSH2 0x81D DUP2 PUSH2 0x7F7 JUMP JUMPDEST SWAP3 SWAP2 POP POP JUMP JUMPDEST PUSH1 0x0 DUP1 PUSH1 0x0 DUP1 PUSH1 0x80 DUP6 DUP8 SUB SLT ISZERO PUSH2 0x83D JUMPI PUSH2 0x83C PUSH2 0x4AF JUMP JUMPDEST JUMPDEST PUSH1 0x0 DUP6 ADD CALLDATALOAD PUSH8 0xFFFFFFFFFFFFFFFF DUP2 GT ISZERO PUSH2 0x85B JUMPI PUSH2 0x85A PUSH2 0x4B4 JUMP JUMPDEST JUMPDEST PUSH2 0x867 DUP8 DUP3 DUP9 ADD PUSH2 0x7C9 JUMP JUMPDEST SWAP5 POP POP PUSH1 0x20 PUSH2 0x878 DUP8 DUP3 DUP9 ADD PUSH2 0x80E JUMP JUMPDEST SWAP4 POP POP PUSH1 0x40 DUP6 ADD CALLDATALOAD PUSH8 0xFFFFFFFFFFFFFFFF DUP2 GT ISZERO PUSH2 0x899 JUMPI PUSH2 0x898 PUSH2 0x4B4 JUMP JUMPDEST JUMPDEST PUSH2 0x8A5 DUP8 DUP3 DUP9 ADD PUSH2 0x7C9 JUMP JUMPDEST SWAP3 POP POP PUSH1 0x60 PUSH2 0x8B6 DUP8 DUP3 DUP9 ADD PUSH2 0x65E JUMP JUMPDEST SWAP2 POP POP SWAP3 SWAP6 SWAP2 SWAP5 POP SWAP3 POP JUMP JUMPDEST PUSH32 0x4E487B7100000000000000000000000000000000000000000000000000000000 PUSH1 0x0 MSTORE PUSH1 0x22 PUSH1 0x4 MSTORE PUSH1 0x24 PUSH1 0x0 REVERT JUMPDEST PUSH1 0x0 PUSH1 0x2 DUP3 DIV SWAP1 POP PUSH1 0x1 DUP3 AND DUP1 PUSH2 0x909 JUMPI PUSH1 0x7F DUP3 AND SWAP2 POP JUMPDEST PUSH1 0x20 DUP3 LT DUP2 EQ ISZERO PUSH2 0x91D JUMPI PUSH2 0x91C PUSH2 0x8C2 JUMP JUMPDEST JUMPDEST POP SWAP2 SWAP1 POP JUMP INVALID LOG2 PUSH5 0x6970667358 0x22 SLT KECCAK256 0xDC EXTCODEHASH STATICCALL SMOD PUSH8 0x6B75F3D438516874 DELEGATECALL 0xE5 PUSH19 0x4F41E00595588C861551DB661637DAF164736F PUSH13 0x63430008080033000000000000 "
				},
				"gasEstimates": {
					"creation": {
						"codeDepositCost": "478600",
						"executionCost": "511",
						"totalCost": "479111"
					},
					"external": {
						"addStudentToArray(string,uint8,string,uint64)": "infinite",
						"studentToRegNumber(uint64)": "infinite",
						"students(uint256)": "infinite"
					}
				},
				"methodIdentifiers": {
					"addStudentToArray(string,uint8,string,uint64)": "56f6f438",
					"studentToRegNumber(uint64)": "4ee81e16",
					"students(uint256)": "06ead22e"
				}
			},
			"storageLayout": {
				"storage": [
					{
						"astId": 14,
						"contract": "contracts/Mapping.sol:MyFirstMapping",
						"label": "studentToRegNumber",
						"offset": 0,
						"slot": "0",
						"type": "t_mapping(t_uint64,t_string_storage)"
					},
					{
						"astId": 18,
						"contract": "contracts/Mapping.sol:MyFirstMapping",
						"label": "students",
						"offset": 0,
						"slot": "1",
						"type": "t_array(t_struct(StudentStruct)10_storage)dyn_storage"
					}
				],
				"types": {
					"t_array(t_struct(StudentStruct)10_storage)dyn_storage": {
						"base": "t_struct(StudentStruct)10_storage",
						"encoding": "dynamic_array",
						"label": "struct MyFirstMapping.StudentStruct[]",
						"numberOfBytes": "32"
					},
					"t_mapping(t_uint64,t_string_storage)": {
						"encoding": "mapping",
						"key": "t_uint64",
						"label": "mapping(uint64 => string)",
						"numberOfBytes": "32",
						"value": "t_string_storage"
					},
					"t_string_storage": {
						"encoding": "bytes",
						"label": "string",
						"numberOfBytes": "32"
					},
					"t_struct(StudentStruct)10_storage": {
						"encoding": "inplace",
						"label": "struct MyFirstMapping.StudentStruct",
						"members": [
							{
								"astId": 3,
								"contract": "contracts/Mapping.sol:MyFirstMapping",
								"label": "name",
								"offset": 0,
								"slot": "0",
								"type": "t_string_storage"
							},
							{
								"astId": 5,
								"contract": "contracts/Mapping.sol:MyFirstMapping",
								"label": "age",
								"offset": 0,
								"slot": "1",
								"type": "t_uint8"
							},
							{
								"astId": 7,
								"contract": "contracts/Mapping.sol:MyFirstMapping",
								"label": "department",
								"offset": 0,
								"slot": "2",
								"type": "t_string_storage"
							},
							{
								"astId": 9,
								"contract": "contracts/Mapping.sol:MyFirstMapping",
								"label": "regNumber",
								"offset": 0,
								"slot": "3",
								"type": "t_uint64"
							}
						],
						"numberOfBytes": "128"
					},
					"t_uint64": {
						"encoding": "inplace",
						"label": "uint64",
						"numberOfBytes": "8"
					},
					"t_uint8": {
						"encoding": "inplace",
						"label": "uint8",
						"numberOfBytes": "1"
					}
				}
			},
			"userdoc": {
				"kind": "user",
				"methods": {},
				"version": 1
			}
		}
	}
}