{
	"fundme/FundMe.sol": {
		"FundMe": {
			"abi": [
				{
					"inputs": [],
					"stateMutability": "nonpayable",
					"type": "constructor"
				},
				{
					"inputs": [],
					"name": "notOwner",
					"type": "error"
				},
				{
					"inputs": [
						{
							"internalType": "address",
							"name": "",
							"type": "address"
						}
					],
					"name": "addressToAmount",
					"outputs": [
						{
							"internalType": "uint256",
							"name": "",
							"type": "uint256"
						}
					],
					"stateMutability": "view",
					"type": "function"
				},
				{
					"inputs": [],
					"name": "fund",
					"outputs": [],
					"stateMutability": "payable",
					"type": "function"
				},
				{
					"inputs": [
						{
							"internalType": "uint256",
							"name": "",
							"type": "uint256"
						}
					],
					"name": "funders",
					"outputs": [
						{
							"internalType": "address",
							"name": "",
							"type": "address"
						}
					],
					"stateMutability": "view",
					"type": "function"
				},
				{
					"inputs": [],
					"name": "i_owner",
					"outputs": [
						{
							"internalType": "address",
							"name": "",
							"type": "address"
						}
					],
					"stateMutability": "view",
					"type": "function"
				},
				{
					"inputs": [],
					"name": "viewContractAddress",
					"outputs": [
						{
							"internalType": "address",
							"name": "",
							"type": "address"
						}
					],
					"stateMutability": "view",
					"type": "function"
				},
				{
					"inputs": [],
					"name": "withdraw",
					"outputs": [],
					"stateMutability": "nonpayable",
					"type": "function"
				}
			],
			"devdoc": {
				"kind": "dev",
				"methods": {},
				"version": 1
			},
			"evm": {
				"assembly": "    /* \"fundme/FundMe.sol\":104:1432  contract FundMe {... */\n  mstore(0x40, 0xa0)\n    /* \"fundme/FundMe.sol\":308:317  50 * 1e18 */\n  0x02b5e3af16b1880000\n    /* \"fundme/FundMe.sol\":287:317  uint256 minimumUsd = 50 * 1e18 */\n  0x02\n  sstore\n    /* \"fundme/FundMe.sol\":383:434  constructor() {... */\n  callvalue\n  dup1\n  iszero\n  tag_1\n  jumpi\n  0x00\n  dup1\n  revert\ntag_1:\n  pop\n    /* \"fundme/FundMe.sol\":417:427  msg.sender */\n  caller\n    /* \"fundme/FundMe.sol\":407:427  i_owner = msg.sender */\n  0xffffffffffffffffffffffffffffffffffffffff\n  and\n  0x80\n  dup2\n  0xffffffffffffffffffffffffffffffffffffffff\n  and\n  dup2\n  mstore\n  pop\n  pop\n    /* \"fundme/FundMe.sol\":104:1432  contract FundMe {... */\n  mload(0x80)\n  codecopy(0x00, dataOffset(sub_0), dataSize(sub_0))\n  0x00\n  assignImmutable(\"0x59d26ca75eb04b47ab1bca5d789d02e4d0cf9ff8cb49c9041caeeeab4eccafbf\")\n  return(0x00, dataSize(sub_0))\nstop\n\nsub_0: assembly {\n        /* \"fundme/FundMe.sol\":104:1432  contract FundMe {... */\n      mstore(0x40, 0x80)\n      jumpi(tag_1, lt(calldatasize, 0x04))\n      shr(0xe0, calldataload(0x00))\n      dup1\n      0x3c7e7d28\n      eq\n      tag_2\n      jumpi\n      dup1\n      0x3ccfd60b\n      eq\n      tag_3\n      jumpi\n      dup1\n      0x7a9ebc15\n      eq\n      tag_4\n      jumpi\n      dup1\n      0xb60d4288\n      eq\n      tag_5\n      jumpi\n      dup1\n      0xdba6335f\n      eq\n      tag_6\n      jumpi\n      dup1\n      0xdc0d3dff\n      eq\n      tag_7\n      jumpi\n    tag_1:\n      0x00\n      dup1\n      revert\n        /* \"fundme/FundMe.sol\":231:281  mapping(address => uint256) public addressToAmount */\n    tag_2:\n      callvalue\n      dup1\n      iszero\n      tag_8\n      jumpi\n      0x00\n      dup1\n      revert\n    tag_8:\n      pop\n      tag_9\n      0x04\n      dup1\n      calldatasize\n      sub\n      dup2\n      add\n      swap1\n      tag_10\n      swap2\n      swap1\n      tag_11\n      jump\t// in\n    tag_10:\n      tag_12\n      jump\t// in\n    tag_9:\n      mload(0x40)\n      tag_13\n      swap2\n      swap1\n      tag_14\n      jump\t// in\n    tag_13:\n      mload(0x40)\n      dup1\n      swap2\n      sub\n      swap1\n      return\n        /* \"fundme/FundMe.sol\":908:1328  function withdraw () public onlyOwner {... */\n    tag_3:\n      callvalue\n      dup1\n      iszero\n      tag_15\n      jumpi\n      0x00\n      dup1\n      revert\n    tag_15:\n      pop\n      tag_16\n      tag_17\n      jump\t// in\n    tag_16:\n      stop\n        /* \"fundme/FundMe.sol\":1333:1430  function viewContractAddress () public view returns(address){... */\n    tag_4:\n      callvalue\n      dup1\n      iszero\n      tag_18\n      jumpi\n      0x00\n      dup1\n      revert\n    tag_18:\n      pop\n      tag_19\n      tag_20\n      jump\t// in\n    tag_19:\n      mload(0x40)\n      tag_21\n      swap2\n      swap1\n      tag_22\n      jump\t// in\n    tag_21:\n      mload(0x40)\n      dup1\n      swap2\n      sub\n      swap1\n      return\n        /* \"fundme/FundMe.sol\":666:903  function fund () public payable  {... */\n    tag_5:\n      tag_23\n      tag_24\n      jump\t// in\n    tag_23:\n      stop\n        /* \"fundme/FundMe.sol\":193:225  address public immutable i_owner */\n    tag_6:\n      callvalue\n      dup1\n      iszero\n      tag_25\n      jumpi\n      0x00\n      dup1\n      revert\n    tag_25:\n      pop\n      tag_26\n      tag_27\n      jump\t// in\n    tag_26:\n      mload(0x40)\n      tag_28\n      swap2\n      swap1\n      tag_22\n      jump\t// in\n    tag_28:\n      mload(0x40)\n      dup1\n      swap2\n      sub\n      swap1\n      return\n        /* \"fundme/FundMe.sol\":163:187  address[] public funders */\n    tag_7:\n      callvalue\n      dup1\n      iszero\n      tag_29\n      jumpi\n      0x00\n      dup1\n      revert\n    tag_29:\n      pop\n      tag_30\n      0x04\n      dup1\n      calldatasize\n      sub\n      dup2\n      add\n      swap1\n      tag_31\n      swap2\n      swap1\n      tag_32\n      jump\t// in\n    tag_31:\n      tag_33\n      jump\t// in\n    tag_30:\n      mload(0x40)\n      tag_34\n      swap2\n      swap1\n      tag_22\n      jump\t// in\n    tag_34:\n      mload(0x40)\n      dup1\n      swap2\n      sub\n      swap1\n      return\n        /* \"fundme/FundMe.sol\":231:281  mapping(address => uint256) public addressToAmount */\n    tag_12:\n      mstore(0x20, 0x01)\n      dup1\n      0x00\n      mstore\n      keccak256(0x00, 0x40)\n      0x00\n      swap2\n      pop\n      swap1\n      pop\n      sload\n      dup2\n      jump\t// out\n        /* \"fundme/FundMe.sol\":908:1328  function withdraw () public onlyOwner {... */\n    tag_17:\n        /* \"fundme/FundMe.sol\":569:576  i_owner */\n      immutable(\"0x59d26ca75eb04b47ab1bca5d789d02e4d0cf9ff8cb49c9041caeeeab4eccafbf\")\n        /* \"fundme/FundMe.sol\":555:576  msg.sender != i_owner */\n      0xffffffffffffffffffffffffffffffffffffffff\n      and\n        /* \"fundme/FundMe.sol\":555:565  msg.sender */\n      caller\n        /* \"fundme/FundMe.sol\":555:576  msg.sender != i_owner */\n      0xffffffffffffffffffffffffffffffffffffffff\n      and\n      eq\n        /* \"fundme/FundMe.sol\":552:619  if(msg.sender != i_owner){... */\n      tag_36\n      jumpi\n        /* \"fundme/FundMe.sol\":598:608  notOwner() */\n      mload(0x40)\n      0x251c9d6300000000000000000000000000000000000000000000000000000000\n      dup2\n      mstore\n      0x04\n      add\n      mload(0x40)\n      dup1\n      swap2\n      sub\n      swap1\n      revert\n        /* \"fundme/FundMe.sol\":552:619  if(msg.sender != i_owner){... */\n    tag_36:\n        /* \"fundme/FundMe.sol\":994:1007  uint256 index */\n      0x00\n        /* \"fundme/FundMe.sol\":990:1105  for(uint256 index = 0; index < funders.length; index++){... */\n    tag_38:\n        /* \"fundme/FundMe.sol\":1021:1028  funders */\n      0x00\n        /* \"fundme/FundMe.sol\":1021:1035  funders.length */\n      dup1\n      sload\n      swap1\n      pop\n        /* \"fundme/FundMe.sol\":1013:1018  index */\n      dup2\n        /* \"fundme/FundMe.sol\":1013:1035  index < funders.length */\n      lt\n        /* \"fundme/FundMe.sol\":990:1105  for(uint256 index = 0; index < funders.length; index++){... */\n      iszero\n      tag_39\n      jumpi\n        /* \"fundme/FundMe.sol\":1093:1094  0 */\n      0x00\n        /* \"fundme/FundMe.sol\":1059:1074  addressToAmount */\n      0x01\n        /* \"fundme/FundMe.sol\":1059:1090  addressToAmount[funders[index]] */\n      0x00\n        /* \"fundme/FundMe.sol\":1075:1082  funders */\n      dup1\n        /* \"fundme/FundMe.sol\":1083:1088  index */\n      dup5\n        /* \"fundme/FundMe.sol\":1075:1089  funders[index] */\n      dup2\n      sload\n      dup2\n      lt\n      tag_41\n      jumpi\n      tag_42\n      tag_43\n      jump\t// in\n    tag_42:\n    tag_41:\n      swap1\n      0x00\n      mstore\n      keccak256(0x00, 0x20)\n      add\n      0x00\n      swap1\n      sload\n      swap1\n      0x0100\n      exp\n      swap1\n      div\n      0xffffffffffffffffffffffffffffffffffffffff\n      and\n        /* \"fundme/FundMe.sol\":1059:1090  addressToAmount[funders[index]] */\n      0xffffffffffffffffffffffffffffffffffffffff\n      and\n      0xffffffffffffffffffffffffffffffffffffffff\n      and\n      dup2\n      mstore\n      0x20\n      add\n      swap1\n      dup2\n      mstore\n      0x20\n      add\n      0x00\n      keccak256\n        /* \"fundme/FundMe.sol\":1059:1094  addressToAmount[funders[index]] = 0 */\n      dup2\n      swap1\n      sstore\n      pop\n        /* \"fundme/FundMe.sol\":1037:1044  index++ */\n      dup1\n      dup1\n      tag_45\n      swap1\n      tag_46\n      jump\t// in\n    tag_45:\n      swap2\n      pop\n      pop\n        /* \"fundme/FundMe.sol\":990:1105  for(uint256 index = 0; index < funders.length; index++){... */\n      jump(tag_38)\n    tag_39:\n      pop\n        /* \"fundme/FundMe.sol\":1138:1139  0 */\n      0x00\n        /* \"fundme/FundMe.sol\":1124:1140  new address[](0) */\n      0xffffffffffffffff\n      dup2\n      gt\n      iszero\n      tag_47\n      jumpi\n      tag_48\n      tag_49\n      jump\t// in\n    tag_48:\n    tag_47:\n      mload(0x40)\n      swap1\n      dup1\n      dup3\n      mstore\n      dup1\n      0x20\n      mul\n      0x20\n      add\n      dup3\n      add\n      0x40\n      mstore\n      dup1\n      iszero\n      tag_50\n      jumpi\n      dup2\n      0x20\n      add\n      0x20\n      dup3\n      mul\n      dup1\n      calldatasize\n      dup4\n      calldatacopy\n      dup1\n      dup3\n      add\n      swap2\n      pop\n      pop\n      swap1\n      pop\n    tag_50:\n      pop\n        /* \"fundme/FundMe.sol\":1114:1121  funders */\n      0x00\n        /* \"fundme/FundMe.sol\":1114:1140  funders = new address[](0) */\n      swap1\n      dup1\n      mload\n      swap1\n      0x20\n      add\n      swap1\n      tag_51\n      swap3\n      swap2\n      swap1\n      tag_52\n      jump\t// in\n    tag_51:\n      pop\n        /* \"fundme/FundMe.sol\":1195:1211  bool callSuccess */\n      0x00\n        /* \"fundme/FundMe.sol\":1225:1235  msg.sender */\n      caller\n        /* \"fundme/FundMe.sol\":1217:1241  payable(msg.sender).call */\n      0xffffffffffffffffffffffffffffffffffffffff\n      and\n        /* \"fundme/FundMe.sol\":1250:1271  address(this).balance */\n      selfbalance\n        /* \"fundme/FundMe.sol\":1217:1276  payable(msg.sender).call{value : address(this).balance}(\"\") */\n      mload(0x40)\n      tag_53\n      swap1\n      tag_54\n      jump\t// in\n    tag_53:\n      0x00\n      mload(0x40)\n      dup1\n      dup4\n      sub\n      dup2\n      dup6\n      dup8\n      gas\n      call\n      swap3\n      pop\n      pop\n      pop\n      returndatasize\n      dup1\n      0x00\n      dup2\n      eq\n      tag_57\n      jumpi\n      mload(0x40)\n      swap2\n      pop\n      and(add(returndatasize, 0x3f), not(0x1f))\n      dup3\n      add\n      0x40\n      mstore\n      returndatasize\n      dup3\n      mstore\n      returndatasize\n      0x00\n      0x20\n      dup5\n      add\n      returndatacopy\n      jump(tag_56)\n    tag_57:\n      0x60\n      swap2\n      pop\n    tag_56:\n      pop\n        /* \"fundme/FundMe.sol\":1194:1276  (bool callSuccess, ) = payable(msg.sender).call{value : address(this).balance}(\"\") */\n      pop\n      swap1\n      pop\n        /* \"fundme/FundMe.sol\":1294:1305  callSuccess */\n      dup1\n        /* \"fundme/FundMe.sol\":1286:1321  require(callSuccess, \"call failed\") */\n      tag_58\n      jumpi\n      mload(0x40)\n      0x08c379a000000000000000000000000000000000000000000000000000000000\n      dup2\n      mstore\n      0x04\n      add\n      tag_59\n      swap1\n      tag_60\n      jump\t// in\n    tag_59:\n      mload(0x40)\n      dup1\n      swap2\n      sub\n      swap1\n      revert\n    tag_58:\n        /* \"fundme/FundMe.sol\":946:1328  {... */\n      pop\n        /* \"fundme/FundMe.sol\":908:1328  function withdraw () public onlyOwner {... */\n      jump\t// out\n        /* \"fundme/FundMe.sol\":1333:1430  function viewContractAddress () public view returns(address){... */\n    tag_20:\n        /* \"fundme/FundMe.sol\":1385:1392  address */\n      0x00\n        /* \"fundme/FundMe.sol\":1418:1422  this */\n      address\n        /* \"fundme/FundMe.sol\":1403:1423  return address(this) */\n      swap1\n      pop\n        /* \"fundme/FundMe.sol\":1333:1430  function viewContractAddress () public view returns(address){... */\n      swap1\n      jump\t// out\n        /* \"fundme/FundMe.sol\":666:903  function fund () public payable  {... */\n    tag_24:\n        /* \"fundme/FundMe.sol\":787:797  minimumUsd */\n      sload(0x02)\n        /* \"fundme/FundMe.sol\":756:783  msg.value.convertWeiToUSD() */\n      tag_63\n        /* \"fundme/FundMe.sol\":756:765  msg.value */\n      callvalue\n        /* \"fundme/FundMe.sol\":756:781  msg.value.convertWeiToUSD */\n      tag_64\n        /* \"fundme/FundMe.sol\":756:783  msg.value.convertWeiToUSD() */\n      jump\t// in\n    tag_63:\n        /* \"fundme/FundMe.sol\":756:797  msg.value.convertWeiToUSD() >= minimumUsd */\n      lt\n      iszero\n        /* \"fundme/FundMe.sol\":748:813  require(msg.value.convertWeiToUSD() >= minimumUsd, \"Didn't send\") */\n      tag_65\n      jumpi\n      mload(0x40)\n      0x08c379a000000000000000000000000000000000000000000000000000000000\n      dup2\n      mstore\n      0x04\n      add\n      tag_66\n      swap1\n      tag_67\n      jump\t// in\n    tag_66:\n      mload(0x40)\n      dup1\n      swap2\n      sub\n      swap1\n      revert\n    tag_65:\n        /* \"fundme/FundMe.sol\":823:830  funders */\n      0x00\n        /* \"fundme/FundMe.sol\":836:846  msg.sender */\n      caller\n        /* \"fundme/FundMe.sol\":823:847  funders.push(msg.sender) */\n      swap1\n      dup1\n      0x01\n      dup2\n      sload\n      add\n      dup1\n      dup3\n      sstore\n      dup1\n      swap2\n      pop\n      pop\n      0x01\n      swap1\n      sub\n      swap1\n      0x00\n      mstore\n      keccak256(0x00, 0x20)\n      add\n      0x00\n      swap1\n      swap2\n      swap1\n      swap2\n      swap1\n      swap2\n      0x0100\n      exp\n      dup2\n      sload\n      dup2\n      0xffffffffffffffffffffffffffffffffffffffff\n      mul\n      not\n      and\n      swap1\n      dup4\n      0xffffffffffffffffffffffffffffffffffffffff\n      and\n      mul\n      or\n      swap1\n      sstore\n      pop\n        /* \"fundme/FundMe.sol\":887:896  msg.value */\n      callvalue\n        /* \"fundme/FundMe.sol\":857:872  addressToAmount */\n      0x01\n        /* \"fundme/FundMe.sol\":857:884  addressToAmount[msg.sender] */\n      0x00\n        /* \"fundme/FundMe.sol\":873:883  msg.sender */\n      caller\n        /* \"fundme/FundMe.sol\":857:884  addressToAmount[msg.sender] */\n      0xffffffffffffffffffffffffffffffffffffffff\n      and\n      0xffffffffffffffffffffffffffffffffffffffff\n      and\n      dup2\n      mstore\n      0x20\n      add\n      swap1\n      dup2\n      mstore\n      0x20\n      add\n      0x00\n      keccak256\n        /* \"fundme/FundMe.sol\":857:896  addressToAmount[msg.sender] = msg.value */\n      dup2\n      swap1\n      sstore\n      pop\n        /* \"fundme/FundMe.sol\":666:903  function fund () public payable  {... */\n      jump\t// out\n        /* \"fundme/FundMe.sol\":193:225  address public immutable i_owner */\n    tag_27:\n      immutable(\"0x59d26ca75eb04b47ab1bca5d789d02e4d0cf9ff8cb49c9041caeeeab4eccafbf\")\n      dup2\n      jump\t// out\n        /* \"fundme/FundMe.sol\":163:187  address[] public funders */\n    tag_33:\n      0x00\n      dup2\n      dup2\n      sload\n      dup2\n      lt\n      tag_69\n      jumpi\n      0x00\n      dup1\n      revert\n    tag_69:\n      swap1\n      0x00\n      mstore\n      keccak256(0x00, 0x20)\n      add\n      0x00\n      swap2\n      pop\n      sload\n      swap1\n      0x0100\n      exp\n      swap1\n      div\n      0xffffffffffffffffffffffffffffffffffffffff\n      and\n      dup2\n      jump\t// out\n        /* \"fundme/FundMeLibrary.sol\":431:726  function convertWeiToUSD(uint256 _ethAmount) internal view returns(uint256){... */\n    tag_64:\n        /* \"fundme/FundMeLibrary.sol\":498:505  uint256 */\n      0x00\n        /* \"fundme/FundMeLibrary.sol\":552:571  uint256 amountInWei */\n      dup1\n        /* \"fundme/FundMeLibrary.sol\":587:591  1e18 */\n      0x0de0b6b3a7640000\n        /* \"fundme/FundMeLibrary.sol\":574:584  _ethAmount */\n      dup4\n        /* \"fundme/FundMeLibrary.sol\":574:591  _ethAmount * 1e18 */\n      tag_72\n      swap2\n      swap1\n      tag_73\n      jump\t// in\n    tag_72:\n        /* \"fundme/FundMeLibrary.sol\":552:591  uint256 amountInWei = _ethAmount * 1e18 */\n      swap1\n      pop\n        /* \"fundme/FundMeLibrary.sol\":637:655  uint256 priceInUsd */\n      0x00\n        /* \"fundme/FundMeLibrary.sol\":658:668  getPrice() */\n      tag_74\n        /* \"fundme/FundMeLibrary.sol\":658:666  getPrice */\n      tag_75\n        /* \"fundme/FundMeLibrary.sol\":658:668  getPrice() */\n      jump\t// in\n    tag_74:\n        /* \"fundme/FundMeLibrary.sol\":637:668  uint256 priceInUsd = getPrice() */\n      swap1\n      pop\n        /* \"fundme/FundMeLibrary.sol\":714:718  1e18 */\n      0x0de0b6b3a7640000\n        /* \"fundme/FundMeLibrary.sol\":700:710  priceInUsd */\n      dup2\n        /* \"fundme/FundMeLibrary.sol\":686:697  amountInWei */\n      dup4\n        /* \"fundme/FundMeLibrary.sol\":686:710  amountInWei * priceInUsd */\n      tag_76\n      swap2\n      swap1\n      tag_73\n      jump\t// in\n    tag_76:\n        /* \"fundme/FundMeLibrary.sol\":685:718  (amountInWei * priceInUsd) / 1e18 */\n      tag_77\n      swap2\n      swap1\n      tag_78\n      jump\t// in\n    tag_77:\n        /* \"fundme/FundMeLibrary.sol\":678:718  return (amountInWei * priceInUsd) / 1e18 */\n      swap3\n      pop\n      pop\n      pop\n        /* \"fundme/FundMeLibrary.sol\":431:726  function convertWeiToUSD(uint256 _ethAmount) internal view returns(uint256){... */\n      swap2\n      swap1\n      pop\n      jump\t// out\n        /* \"fundme/FundMeLibrary.sol\":162:426  function getPrice () internal view returns(uint256) {... */\n    tag_75:\n        /* \"fundme/FundMeLibrary.sol\":205:212  uint256 */\n      0x00\n        /* \"fundme/FundMeLibrary.sol\":224:255  AggregatorV3Interface chainLink */\n      dup1\n        /* \"fundme/FundMeLibrary.sol\":280:322  0x694AA1769357215DE4FAC081bf1f309aDC325306 */\n      0x694aa1769357215de4fac081bf1f309adc325306\n        /* \"fundme/FundMeLibrary.sol\":224:323  AggregatorV3Interface chainLink = AggregatorV3Interface(0x694AA1769357215DE4FAC081bf1f309aDC325306) */\n      swap1\n      pop\n        /* \"fundme/FundMeLibrary.sol\":335:347  int256 price */\n      0x00\n        /* \"fundme/FundMeLibrary.sol\":354:363  chainLink */\n      dup2\n        /* \"fundme/FundMeLibrary.sol\":354:379  chainLink.latestRoundData */\n      0xffffffffffffffffffffffffffffffffffffffff\n      and\n      0xfeaf968c\n        /* \"fundme/FundMeLibrary.sol\":354:381  chainLink.latestRoundData() */\n      mload(0x40)\n      dup2\n      0xffffffff\n      and\n      0xe0\n      shl\n      dup2\n      mstore\n      0x04\n      add\n      0xa0\n      mload(0x40)\n      dup1\n      dup4\n      sub\n      dup2\n      dup7\n      gas\n      staticcall\n      iszero\n      dup1\n      iszero\n      tag_81\n      jumpi\n      returndatasize\n      0x00\n      dup1\n      returndatacopy\n      revert(0x00, returndatasize)\n    tag_81:\n      pop\n      pop\n      pop\n      pop\n      mload(0x40)\n      returndatasize\n      not(0x1f)\n      0x1f\n      dup3\n      add\n      and\n      dup3\n      add\n      dup1\n      0x40\n      mstore\n      pop\n      dup2\n      add\n      swap1\n      tag_82\n      swap2\n      swap1\n      tag_83\n      jump\t// in\n    tag_82:\n        /* \"fundme/FundMeLibrary.sol\":333:381  (,int256 price,,,) = chainLink.latestRoundData() */\n      pop\n      pop\n      pop\n      swap2\n      pop\n      pop\n        /* \"fundme/FundMeLibrary.sol\":414:418  1e10 */\n      0x02540be400\n        /* \"fundme/FundMeLibrary.sol\":406:411  price */\n      dup2\n        /* \"fundme/FundMeLibrary.sol\":406:418  price * 1e10 */\n      tag_84\n      swap2\n      swap1\n      tag_85\n      jump\t// in\n    tag_84:\n        /* \"fundme/FundMeLibrary.sol\":391:419  return uint256(price * 1e10) */\n      swap3\n      pop\n      pop\n      pop\n        /* \"fundme/FundMeLibrary.sol\":162:426  function getPrice () internal view returns(uint256) {... */\n      swap1\n      jump\t// out\n    tag_52:\n      dup3\n      dup1\n      sload\n      dup3\n      dup3\n      sstore\n      swap1\n      0x00\n      mstore\n      keccak256(0x00, 0x20)\n      swap1\n      dup2\n      add\n      swap3\n      dup3\n      iszero\n      tag_86\n      jumpi\n      swap2\n      0x20\n      mul\n      dup3\n      add\n    tag_87:\n      dup3\n      dup2\n      gt\n      iszero\n      tag_88\n      jumpi\n      dup3\n      mload\n      dup3\n      exp(0x0100, 0x00)\n      dup2\n      sload\n      dup2\n      0xffffffffffffffffffffffffffffffffffffffff\n      mul\n      not\n      and\n      swap1\n      dup4\n      0xffffffffffffffffffffffffffffffffffffffff\n      and\n      mul\n      or\n      swap1\n      sstore\n      pop\n      swap2\n      0x20\n      add\n      swap2\n      swap1\n      0x01\n      add\n      swap1\n      jump(tag_87)\n    tag_88:\n    tag_86:\n      pop\n      swap1\n      pop\n      tag_89\n      swap2\n      swap1\n      tag_90\n      jump\t// in\n    tag_89:\n      pop\n      swap1\n      jump\t// out\n    tag_90:\n    tag_91:\n      dup1\n      dup3\n      gt\n      iszero\n      tag_92\n      jumpi\n      0x00\n      dup2\n      0x00\n      swap1\n      sstore\n      pop\n      0x01\n      add\n      jump(tag_91)\n    tag_92:\n      pop\n      swap1\n      jump\t// out\n        /* \"#utility.yul\":88:205   */\n    tag_94:\n        /* \"#utility.yul\":197:198   */\n      0x00\n        /* \"#utility.yul\":194:195   */\n      dup1\n        /* \"#utility.yul\":187:199   */\n      revert\n        /* \"#utility.yul\":334:460   */\n    tag_96:\n        /* \"#utility.yul\":371:378   */\n      0x00\n        /* \"#utility.yul\":411:453   */\n      0xffffffffffffffffffffffffffffffffffffffff\n        /* \"#utility.yul\":404:409   */\n      dup3\n        /* \"#utility.yul\":400:454   */\n      and\n        /* \"#utility.yul\":389:454   */\n      swap1\n      pop\n        /* \"#utility.yul\":334:460   */\n      swap2\n      swap1\n      pop\n      jump\t// out\n        /* \"#utility.yul\":466:562   */\n    tag_97:\n        /* \"#utility.yul\":503:510   */\n      0x00\n        /* \"#utility.yul\":532:556   */\n      tag_128\n        /* \"#utility.yul\":550:555   */\n      dup3\n        /* \"#utility.yul\":532:556   */\n      tag_96\n      jump\t// in\n    tag_128:\n        /* \"#utility.yul\":521:556   */\n      swap1\n      pop\n        /* \"#utility.yul\":466:562   */\n      swap2\n      swap1\n      pop\n      jump\t// out\n        /* \"#utility.yul\":568:690   */\n    tag_98:\n        /* \"#utility.yul\":641:665   */\n      tag_130\n        /* \"#utility.yul\":659:664   */\n      dup2\n        /* \"#utility.yul\":641:665   */\n      tag_97\n      jump\t// in\n    tag_130:\n        /* \"#utility.yul\":634:639   */\n      dup2\n        /* \"#utility.yul\":631:666   */\n      eq\n        /* \"#utility.yul\":621:684   */\n      tag_131\n      jumpi\n        /* \"#utility.yul\":680:681   */\n      0x00\n        /* \"#utility.yul\":677:678   */\n      dup1\n        /* \"#utility.yul\":670:682   */\n      revert\n        /* \"#utility.yul\":621:684   */\n    tag_131:\n        /* \"#utility.yul\":568:690   */\n      pop\n      jump\t// out\n        /* \"#utility.yul\":696:835   */\n    tag_99:\n        /* \"#utility.yul\":742:747   */\n      0x00\n        /* \"#utility.yul\":780:786   */\n      dup2\n        /* \"#utility.yul\":767:787   */\n      calldataload\n        /* \"#utility.yul\":758:787   */\n      swap1\n      pop\n        /* \"#utility.yul\":796:829   */\n      tag_133\n        /* \"#utility.yul\":823:828   */\n      dup2\n        /* \"#utility.yul\":796:829   */\n      tag_98\n      jump\t// in\n    tag_133:\n        /* \"#utility.yul\":696:835   */\n      swap3\n      swap2\n      pop\n      pop\n      jump\t// out\n        /* \"#utility.yul\":841:1170   */\n    tag_11:\n        /* \"#utility.yul\":900:906   */\n      0x00\n        /* \"#utility.yul\":949:951   */\n      0x20\n        /* \"#utility.yul\":937:946   */\n      dup3\n        /* \"#utility.yul\":928:935   */\n      dup5\n        /* \"#utility.yul\":924:947   */\n      sub\n        /* \"#utility.yul\":920:952   */\n      slt\n        /* \"#utility.yul\":917:1036   */\n      iszero\n      tag_135\n      jumpi\n        /* \"#utility.yul\":955:1034   */\n      tag_136\n      tag_94\n      jump\t// in\n    tag_136:\n        /* \"#utility.yul\":917:1036   */\n    tag_135:\n        /* \"#utility.yul\":1075:1076   */\n      0x00\n        /* \"#utility.yul\":1100:1153   */\n      tag_137\n        /* \"#utility.yul\":1145:1152   */\n      dup5\n        /* \"#utility.yul\":1136:1142   */\n      dup3\n        /* \"#utility.yul\":1125:1134   */\n      dup6\n        /* \"#utility.yul\":1121:1143   */\n      add\n        /* \"#utility.yul\":1100:1153   */\n      tag_99\n      jump\t// in\n    tag_137:\n        /* \"#utility.yul\":1090:1153   */\n      swap2\n      pop\n        /* \"#utility.yul\":1046:1163   */\n      pop\n        /* \"#utility.yul\":841:1170   */\n      swap3\n      swap2\n      pop\n      pop\n      jump\t// out\n        /* \"#utility.yul\":1176:1253   */\n    tag_100:\n        /* \"#utility.yul\":1213:1220   */\n      0x00\n        /* \"#utility.yul\":1242:1247   */\n      dup2\n        /* \"#utility.yul\":1231:1247   */\n      swap1\n      pop\n        /* \"#utility.yul\":1176:1253   */\n      swap2\n      swap1\n      pop\n      jump\t// out\n        /* \"#utility.yul\":1259:1377   */\n    tag_101:\n        /* \"#utility.yul\":1346:1370   */\n      tag_140\n        /* \"#utility.yul\":1364:1369   */\n      dup2\n        /* \"#utility.yul\":1346:1370   */\n      tag_100\n      jump\t// in\n    tag_140:\n        /* \"#utility.yul\":1341:1344   */\n      dup3\n        /* \"#utility.yul\":1334:1371   */\n      mstore\n        /* \"#utility.yul\":1259:1377   */\n      pop\n      pop\n      jump\t// out\n        /* \"#utility.yul\":1383:1605   */\n    tag_14:\n        /* \"#utility.yul\":1476:1480   */\n      0x00\n        /* \"#utility.yul\":1514:1516   */\n      0x20\n        /* \"#utility.yul\":1503:1512   */\n      dup3\n        /* \"#utility.yul\":1499:1517   */\n      add\n        /* \"#utility.yul\":1491:1517   */\n      swap1\n      pop\n        /* \"#utility.yul\":1527:1598   */\n      tag_142\n        /* \"#utility.yul\":1595:1596   */\n      0x00\n        /* \"#utility.yul\":1584:1593   */\n      dup4\n        /* \"#utility.yul\":1580:1597   */\n      add\n        /* \"#utility.yul\":1571:1577   */\n      dup5\n        /* \"#utility.yul\":1527:1598   */\n      tag_101\n      jump\t// in\n    tag_142:\n        /* \"#utility.yul\":1383:1605   */\n      swap3\n      swap2\n      pop\n      pop\n      jump\t// out\n        /* \"#utility.yul\":1611:1729   */\n    tag_102:\n        /* \"#utility.yul\":1698:1722   */\n      tag_144\n        /* \"#utility.yul\":1716:1721   */\n      dup2\n        /* \"#utility.yul\":1698:1722   */\n      tag_97\n      jump\t// in\n    tag_144:\n        /* \"#utility.yul\":1693:1696   */\n      dup3\n        /* \"#utility.yul\":1686:1723   */\n      mstore\n        /* \"#utility.yul\":1611:1729   */\n      pop\n      pop\n      jump\t// out\n        /* \"#utility.yul\":1735:1957   */\n    tag_22:\n        /* \"#utility.yul\":1828:1832   */\n      0x00\n        /* \"#utility.yul\":1866:1868   */\n      0x20\n        /* \"#utility.yul\":1855:1864   */\n      dup3\n        /* \"#utility.yul\":1851:1869   */\n      add\n        /* \"#utility.yul\":1843:1869   */\n      swap1\n      pop\n        /* \"#utility.yul\":1879:1950   */\n      tag_146\n        /* \"#utility.yul\":1947:1948   */\n      0x00\n        /* \"#utility.yul\":1936:1945   */\n      dup4\n        /* \"#utility.yul\":1932:1949   */\n      add\n        /* \"#utility.yul\":1923:1929   */\n      dup5\n        /* \"#utility.yul\":1879:1950   */\n      tag_102\n      jump\t// in\n    tag_146:\n        /* \"#utility.yul\":1735:1957   */\n      swap3\n      swap2\n      pop\n      pop\n      jump\t// out\n        /* \"#utility.yul\":1963:2085   */\n    tag_103:\n        /* \"#utility.yul\":2036:2060   */\n      tag_148\n        /* \"#utility.yul\":2054:2059   */\n      dup2\n        /* \"#utility.yul\":2036:2060   */\n      tag_100\n      jump\t// in\n    tag_148:\n        /* \"#utility.yul\":2029:2034   */\n      dup2\n        /* \"#utility.yul\":2026:2061   */\n      eq\n        /* \"#utility.yul\":2016:2079   */\n      tag_149\n      jumpi\n        /* \"#utility.yul\":2075:2076   */\n      0x00\n        /* \"#utility.yul\":2072:2073   */\n      dup1\n        /* \"#utility.yul\":2065:2077   */\n      revert\n        /* \"#utility.yul\":2016:2079   */\n    tag_149:\n        /* \"#utility.yul\":1963:2085   */\n      pop\n      jump\t// out\n        /* \"#utility.yul\":2091:2230   */\n    tag_104:\n        /* \"#utility.yul\":2137:2142   */\n      0x00\n        /* \"#utility.yul\":2175:2181   */\n      dup2\n        /* \"#utility.yul\":2162:2182   */\n      calldataload\n        /* \"#utility.yul\":2153:2182   */\n      swap1\n      pop\n        /* \"#utility.yul\":2191:2224   */\n      tag_151\n        /* \"#utility.yul\":2218:2223   */\n      dup2\n        /* \"#utility.yul\":2191:2224   */\n      tag_103\n      jump\t// in\n    tag_151:\n        /* \"#utility.yul\":2091:2230   */\n      swap3\n      swap2\n      pop\n      pop\n      jump\t// out\n        /* \"#utility.yul\":2236:2565   */\n    tag_32:\n        /* \"#utility.yul\":2295:2301   */\n      0x00\n        /* \"#utility.yul\":2344:2346   */\n      0x20\n        /* \"#utility.yul\":2332:2341   */\n      dup3\n        /* \"#utility.yul\":2323:2330   */\n      dup5\n        /* \"#utility.yul\":2319:2342   */\n      sub\n        /* \"#utility.yul\":2315:2347   */\n      slt\n        /* \"#utility.yul\":2312:2431   */\n      iszero\n      tag_153\n      jumpi\n        /* \"#utility.yul\":2350:2429   */\n      tag_154\n      tag_94\n      jump\t// in\n    tag_154:\n        /* \"#utility.yul\":2312:2431   */\n    tag_153:\n        /* \"#utility.yul\":2470:2471   */\n      0x00\n        /* \"#utility.yul\":2495:2548   */\n      tag_155\n        /* \"#utility.yul\":2540:2547   */\n      dup5\n        /* \"#utility.yul\":2531:2537   */\n      dup3\n        /* \"#utility.yul\":2520:2529   */\n      dup6\n        /* \"#utility.yul\":2516:2538   */\n      add\n        /* \"#utility.yul\":2495:2548   */\n      tag_104\n      jump\t// in\n    tag_155:\n        /* \"#utility.yul\":2485:2548   */\n      swap2\n      pop\n        /* \"#utility.yul\":2441:2558   */\n      pop\n        /* \"#utility.yul\":2236:2565   */\n      swap3\n      swap2\n      pop\n      pop\n      jump\t// out\n        /* \"#utility.yul\":2571:2751   */\n    tag_43:\n        /* \"#utility.yul\":2619:2696   */\n      0x4e487b7100000000000000000000000000000000000000000000000000000000\n        /* \"#utility.yul\":2616:2617   */\n      0x00\n        /* \"#utility.yul\":2609:2697   */\n      mstore\n        /* \"#utility.yul\":2716:2720   */\n      0x32\n        /* \"#utility.yul\":2713:2714   */\n      0x04\n        /* \"#utility.yul\":2706:2721   */\n      mstore\n        /* \"#utility.yul\":2740:2744   */\n      0x24\n        /* \"#utility.yul\":2737:2738   */\n      0x00\n        /* \"#utility.yul\":2730:2745   */\n      revert\n        /* \"#utility.yul\":2757:2937   */\n    tag_105:\n        /* \"#utility.yul\":2805:2882   */\n      0x4e487b7100000000000000000000000000000000000000000000000000000000\n        /* \"#utility.yul\":2802:2803   */\n      0x00\n        /* \"#utility.yul\":2795:2883   */\n      mstore\n        /* \"#utility.yul\":2902:2906   */\n      0x11\n        /* \"#utility.yul\":2899:2900   */\n      0x04\n        /* \"#utility.yul\":2892:2907   */\n      mstore\n        /* \"#utility.yul\":2926:2930   */\n      0x24\n        /* \"#utility.yul\":2923:2924   */\n      0x00\n        /* \"#utility.yul\":2916:2931   */\n      revert\n        /* \"#utility.yul\":2943:3176   */\n    tag_46:\n        /* \"#utility.yul\":2982:2985   */\n      0x00\n        /* \"#utility.yul\":3005:3029   */\n      tag_159\n        /* \"#utility.yul\":3023:3028   */\n      dup3\n        /* \"#utility.yul\":3005:3029   */\n      tag_100\n      jump\t// in\n    tag_159:\n        /* \"#utility.yul\":2996:3029   */\n      swap2\n      pop\n        /* \"#utility.yul\":3051:3117   */\n      0xffffffffffffffffffffffffffffffffffffffffffffffffffffffffffffffff\n        /* \"#utility.yul\":3044:3049   */\n      dup3\n        /* \"#utility.yul\":3041:3118   */\n      sub\n        /* \"#utility.yul\":3038:3141   */\n      tag_160\n      jumpi\n        /* \"#utility.yul\":3121:3139   */\n      tag_161\n      tag_105\n      jump\t// in\n    tag_161:\n        /* \"#utility.yul\":3038:3141   */\n    tag_160:\n        /* \"#utility.yul\":3168:3169   */\n      0x01\n        /* \"#utility.yul\":3161:3166   */\n      dup3\n        /* \"#utility.yul\":3157:3170   */\n      add\n        /* \"#utility.yul\":3150:3170   */\n      swap1\n      pop\n        /* \"#utility.yul\":2943:3176   */\n      swap2\n      swap1\n      pop\n      jump\t// out\n        /* \"#utility.yul\":3182:3362   */\n    tag_49:\n        /* \"#utility.yul\":3230:3307   */\n      0x4e487b7100000000000000000000000000000000000000000000000000000000\n        /* \"#utility.yul\":3227:3228   */\n      0x00\n        /* \"#utility.yul\":3220:3308   */\n      mstore\n        /* \"#utility.yul\":3327:3331   */\n      0x41\n        /* \"#utility.yul\":3324:3325   */\n      0x04\n        /* \"#utility.yul\":3317:3332   */\n      mstore\n        /* \"#utility.yul\":3351:3355   */\n      0x24\n        /* \"#utility.yul\":3348:3349   */\n      0x00\n        /* \"#utility.yul\":3341:3356   */\n      revert\n        /* \"#utility.yul\":3368:3515   */\n    tag_106:\n        /* \"#utility.yul\":3469:3480   */\n      0x00\n        /* \"#utility.yul\":3506:3509   */\n      dup2\n        /* \"#utility.yul\":3491:3509   */\n      swap1\n      pop\n        /* \"#utility.yul\":3368:3515   */\n      swap3\n      swap2\n      pop\n      pop\n      jump\t// out\n        /* \"#utility.yul\":3521:3635   */\n    tag_107:\n      pop\n      jump\t// out\n        /* \"#utility.yul\":3641:4039   */\n    tag_108:\n        /* \"#utility.yul\":3800:3803   */\n      0x00\n        /* \"#utility.yul\":3821:3904   */\n      tag_166\n        /* \"#utility.yul\":3902:3903   */\n      0x00\n        /* \"#utility.yul\":3897:3900   */\n      dup4\n        /* \"#utility.yul\":3821:3904   */\n      tag_106\n      jump\t// in\n    tag_166:\n        /* \"#utility.yul\":3814:3904   */\n      swap2\n      pop\n        /* \"#utility.yul\":3913:4006   */\n      tag_167\n        /* \"#utility.yul\":4002:4005   */\n      dup3\n        /* \"#utility.yul\":3913:4006   */\n      tag_107\n      jump\t// in\n    tag_167:\n        /* \"#utility.yul\":4031:4032   */\n      0x00\n        /* \"#utility.yul\":4026:4029   */\n      dup3\n        /* \"#utility.yul\":4022:4033   */\n      add\n        /* \"#utility.yul\":4015:4033   */\n      swap1\n      pop\n        /* \"#utility.yul\":3641:4039   */\n      swap2\n      swap1\n      pop\n      jump\t// out\n        /* \"#utility.yul\":4045:4424   */\n    tag_54:\n        /* \"#utility.yul\":4229:4232   */\n      0x00\n        /* \"#utility.yul\":4251:4398   */\n      tag_169\n        /* \"#utility.yul\":4394:4397   */\n      dup3\n        /* \"#utility.yul\":4251:4398   */\n      tag_108\n      jump\t// in\n    tag_169:\n        /* \"#utility.yul\":4244:4398   */\n      swap2\n      pop\n        /* \"#utility.yul\":4415:4418   */\n      dup2\n        /* \"#utility.yul\":4408:4418   */\n      swap1\n      pop\n        /* \"#utility.yul\":4045:4424   */\n      swap2\n      swap1\n      pop\n      jump\t// out\n        /* \"#utility.yul\":4430:4599   */\n    tag_109:\n        /* \"#utility.yul\":4514:4525   */\n      0x00\n        /* \"#utility.yul\":4548:4554   */\n      dup3\n        /* \"#utility.yul\":4543:4546   */\n      dup3\n        /* \"#utility.yul\":4536:4555   */\n      mstore\n        /* \"#utility.yul\":4588:4592   */\n      0x20\n        /* \"#utility.yul\":4583:4586   */\n      dup3\n        /* \"#utility.yul\":4579:4593   */\n      add\n        /* \"#utility.yul\":4564:4593   */\n      swap1\n      pop\n        /* \"#utility.yul\":4430:4599   */\n      swap3\n      swap2\n      pop\n      pop\n      jump\t// out\n        /* \"#utility.yul\":4605:4766   */\n    tag_110:\n        /* \"#utility.yul\":4745:4758   */\n      0x63616c6c206661696c6564000000000000000000000000000000000000000000\n        /* \"#utility.yul\":4741:4742   */\n      0x00\n        /* \"#utility.yul\":4733:4739   */\n      dup3\n        /* \"#utility.yul\":4729:4743   */\n      add\n        /* \"#utility.yul\":4722:4759   */\n      mstore\n        /* \"#utility.yul\":4605:4766   */\n      pop\n      jump\t// out\n        /* \"#utility.yul\":4772:5138   */\n    tag_111:\n        /* \"#utility.yul\":4914:4917   */\n      0x00\n        /* \"#utility.yul\":4935:5002   */\n      tag_173\n        /* \"#utility.yul\":4999:5001   */\n      0x0b\n        /* \"#utility.yul\":4994:4997   */\n      dup4\n        /* \"#utility.yul\":4935:5002   */\n      tag_109\n      jump\t// in\n    tag_173:\n        /* \"#utility.yul\":4928:5002   */\n      swap2\n      pop\n        /* \"#utility.yul\":5011:5104   */\n      tag_174\n        /* \"#utility.yul\":5100:5103   */\n      dup3\n        /* \"#utility.yul\":5011:5104   */\n      tag_110\n      jump\t// in\n    tag_174:\n        /* \"#utility.yul\":5129:5131   */\n      0x20\n        /* \"#utility.yul\":5124:5127   */\n      dup3\n        /* \"#utility.yul\":5120:5132   */\n      add\n        /* \"#utility.yul\":5113:5132   */\n      swap1\n      pop\n        /* \"#utility.yul\":4772:5138   */\n      swap2\n      swap1\n      pop\n      jump\t// out\n        /* \"#utility.yul\":5144:5563   */\n    tag_60:\n        /* \"#utility.yul\":5310:5314   */\n      0x00\n        /* \"#utility.yul\":5348:5350   */\n      0x20\n        /* \"#utility.yul\":5337:5346   */\n      dup3\n        /* \"#utility.yul\":5333:5351   */\n      add\n        /* \"#utility.yul\":5325:5351   */\n      swap1\n      pop\n        /* \"#utility.yul\":5397:5406   */\n      dup2\n        /* \"#utility.yul\":5391:5395   */\n      dup2\n        /* \"#utility.yul\":5387:5407   */\n      sub\n        /* \"#utility.yul\":5383:5384   */\n      0x00\n        /* \"#utility.yul\":5372:5381   */\n      dup4\n        /* \"#utility.yul\":5368:5385   */\n      add\n        /* \"#utility.yul\":5361:5408   */\n      mstore\n        /* \"#utility.yul\":5425:5556   */\n      tag_176\n        /* \"#utility.yul\":5551:5555   */\n      dup2\n        /* \"#utility.yul\":5425:5556   */\n      tag_111\n      jump\t// in\n    tag_176:\n        /* \"#utility.yul\":5417:5556   */\n      swap1\n      pop\n        /* \"#utility.yul\":5144:5563   */\n      swap2\n      swap1\n      pop\n      jump\t// out\n        /* \"#utility.yul\":5569:5730   */\n    tag_112:\n        /* \"#utility.yul\":5709:5722   */\n      0x4469646e27742073656e64000000000000000000000000000000000000000000\n        /* \"#utility.yul\":5705:5706   */\n      0x00\n        /* \"#utility.yul\":5697:5703   */\n      dup3\n        /* \"#utility.yul\":5693:5707   */\n      add\n        /* \"#utility.yul\":5686:5723   */\n      mstore\n        /* \"#utility.yul\":5569:5730   */\n      pop\n      jump\t// out\n        /* \"#utility.yul\":5736:6102   */\n    tag_113:\n        /* \"#utility.yul\":5878:5881   */\n      0x00\n        /* \"#utility.yul\":5899:5966   */\n      tag_179\n        /* \"#utility.yul\":5963:5965   */\n      0x0b\n        /* \"#utility.yul\":5958:5961   */\n      dup4\n        /* \"#utility.yul\":5899:5966   */\n      tag_109\n      jump\t// in\n    tag_179:\n        /* \"#utility.yul\":5892:5966   */\n      swap2\n      pop\n        /* \"#utility.yul\":5975:6068   */\n      tag_180\n        /* \"#utility.yul\":6064:6067   */\n      dup3\n        /* \"#utility.yul\":5975:6068   */\n      tag_112\n      jump\t// in\n    tag_180:\n        /* \"#utility.yul\":6093:6095   */\n      0x20\n        /* \"#utility.yul\":6088:6091   */\n      dup3\n        /* \"#utility.yul\":6084:6096   */\n      add\n        /* \"#utility.yul\":6077:6096   */\n      swap1\n      pop\n        /* \"#utility.yul\":5736:6102   */\n      swap2\n      swap1\n      pop\n      jump\t// out\n        /* \"#utility.yul\":6108:6527   */\n    tag_67:\n        /* \"#utility.yul\":6274:6278   */\n      0x00\n        /* \"#utility.yul\":6312:6314   */\n      0x20\n        /* \"#utility.yul\":6301:6310   */\n      dup3\n        /* \"#utility.yul\":6297:6315   */\n      add\n        /* \"#utility.yul\":6289:6315   */\n      swap1\n      pop\n        /* \"#utility.yul\":6361:6370   */\n      dup2\n        /* \"#utility.yul\":6355:6359   */\n      dup2\n        /* \"#utility.yul\":6351:6371   */\n      sub\n        /* \"#utility.yul\":6347:6348   */\n      0x00\n        /* \"#utility.yul\":6336:6345   */\n      dup4\n        /* \"#utility.yul\":6332:6349   */\n      add\n        /* \"#utility.yul\":6325:6372   */\n      mstore\n        /* \"#utility.yul\":6389:6520   */\n      tag_182\n        /* \"#utility.yul\":6515:6519   */\n      dup2\n        /* \"#utility.yul\":6389:6520   */\n      tag_113\n      jump\t// in\n    tag_182:\n        /* \"#utility.yul\":6381:6520   */\n      swap1\n      pop\n        /* \"#utility.yul\":6108:6527   */\n      swap2\n      swap1\n      pop\n      jump\t// out\n        /* \"#utility.yul\":6533:6943   */\n    tag_73:\n        /* \"#utility.yul\":6573:6580   */\n      0x00\n        /* \"#utility.yul\":6596:6616   */\n      tag_184\n        /* \"#utility.yul\":6614:6615   */\n      dup3\n        /* \"#utility.yul\":6596:6616   */\n      tag_100\n      jump\t// in\n    tag_184:\n        /* \"#utility.yul\":6591:6616   */\n      swap2\n      pop\n        /* \"#utility.yul\":6630:6650   */\n      tag_185\n        /* \"#utility.yul\":6648:6649   */\n      dup4\n        /* \"#utility.yul\":6630:6650   */\n      tag_100\n      jump\t// in\n    tag_185:\n        /* \"#utility.yul\":6625:6650   */\n      swap3\n      pop\n        /* \"#utility.yul\":6685:6686   */\n      dup3\n        /* \"#utility.yul\":6682:6683   */\n      dup3\n        /* \"#utility.yul\":6678:6687   */\n      mul\n        /* \"#utility.yul\":6707:6737   */\n      tag_186\n        /* \"#utility.yul\":6725:6736   */\n      dup2\n        /* \"#utility.yul\":6707:6737   */\n      tag_100\n      jump\t// in\n    tag_186:\n        /* \"#utility.yul\":6696:6737   */\n      swap2\n      pop\n        /* \"#utility.yul\":6886:6887   */\n      dup3\n        /* \"#utility.yul\":6877:6884   */\n      dup3\n        /* \"#utility.yul\":6873:6888   */\n      div\n        /* \"#utility.yul\":6870:6871   */\n      dup5\n        /* \"#utility.yul\":6867:6889   */\n      eq\n        /* \"#utility.yul\":6847:6848   */\n      dup4\n        /* \"#utility.yul\":6840:6849   */\n      iszero\n        /* \"#utility.yul\":6820:6903   */\n      or\n        /* \"#utility.yul\":6797:6936   */\n      tag_187\n      jumpi\n        /* \"#utility.yul\":6916:6934   */\n      tag_188\n      tag_105\n      jump\t// in\n    tag_188:\n        /* \"#utility.yul\":6797:6936   */\n    tag_187:\n        /* \"#utility.yul\":6581:6943   */\n      pop\n        /* \"#utility.yul\":6533:6943   */\n      swap3\n      swap2\n      pop\n      pop\n      jump\t// out\n        /* \"#utility.yul\":6949:7129   */\n    tag_114:\n        /* \"#utility.yul\":6997:7074   */\n      0x4e487b7100000000000000000000000000000000000000000000000000000000\n        /* \"#utility.yul\":6994:6995   */\n      0x00\n        /* \"#utility.yul\":6987:7075   */\n      mstore\n        /* \"#utility.yul\":7094:7098   */\n      0x12\n        /* \"#utility.yul\":7091:7092   */\n      0x04\n        /* \"#utility.yul\":7084:7099   */\n      mstore\n        /* \"#utility.yul\":7118:7122   */\n      0x24\n        /* \"#utility.yul\":7115:7116   */\n      0x00\n        /* \"#utility.yul\":7108:7123   */\n      revert\n        /* \"#utility.yul\":7135:7320   */\n    tag_78:\n        /* \"#utility.yul\":7175:7176   */\n      0x00\n        /* \"#utility.yul\":7192:7212   */\n      tag_191\n        /* \"#utility.yul\":7210:7211   */\n      dup3\n        /* \"#utility.yul\":7192:7212   */\n      tag_100\n      jump\t// in\n    tag_191:\n        /* \"#utility.yul\":7187:7212   */\n      swap2\n      pop\n        /* \"#utility.yul\":7226:7246   */\n      tag_192\n        /* \"#utility.yul\":7244:7245   */\n      dup4\n        /* \"#utility.yul\":7226:7246   */\n      tag_100\n      jump\t// in\n    tag_192:\n        /* \"#utility.yul\":7221:7246   */\n      swap3\n      pop\n        /* \"#utility.yul\":7265:7266   */\n      dup3\n        /* \"#utility.yul\":7255:7290   */\n      tag_193\n      jumpi\n        /* \"#utility.yul\":7270:7288   */\n      tag_194\n      tag_114\n      jump\t// in\n    tag_194:\n        /* \"#utility.yul\":7255:7290   */\n    tag_193:\n        /* \"#utility.yul\":7312:7313   */\n      dup3\n        /* \"#utility.yul\":7309:7310   */\n      dup3\n        /* \"#utility.yul\":7305:7314   */\n      div\n        /* \"#utility.yul\":7300:7314   */\n      swap1\n      pop\n        /* \"#utility.yul\":7135:7320   */\n      swap3\n      swap2\n      pop\n      pop\n      jump\t// out\n        /* \"#utility.yul\":7326:7431   */\n    tag_115:\n        /* \"#utility.yul\":7362:7369   */\n      0x00\n        /* \"#utility.yul\":7402:7424   */\n      0xffffffffffffffffffff\n        /* \"#utility.yul\":7395:7400   */\n      dup3\n        /* \"#utility.yul\":7391:7425   */\n      and\n        /* \"#utility.yul\":7380:7425   */\n      swap1\n      pop\n        /* \"#utility.yul\":7326:7431   */\n      swap2\n      swap1\n      pop\n      jump\t// out\n        /* \"#utility.yul\":7437:7557   */\n    tag_116:\n        /* \"#utility.yul\":7509:7532   */\n      tag_197\n        /* \"#utility.yul\":7526:7531   */\n      dup2\n        /* \"#utility.yul\":7509:7532   */\n      tag_115\n      jump\t// in\n    tag_197:\n        /* \"#utility.yul\":7502:7507   */\n      dup2\n        /* \"#utility.yul\":7499:7533   */\n      eq\n        /* \"#utility.yul\":7489:7551   */\n      tag_198\n      jumpi\n        /* \"#utility.yul\":7547:7548   */\n      0x00\n        /* \"#utility.yul\":7544:7545   */\n      dup1\n        /* \"#utility.yul\":7537:7549   */\n      revert\n        /* \"#utility.yul\":7489:7551   */\n    tag_198:\n        /* \"#utility.yul\":7437:7557   */\n      pop\n      jump\t// out\n        /* \"#utility.yul\":7563:7704   */\n    tag_117:\n        /* \"#utility.yul\":7619:7624   */\n      0x00\n        /* \"#utility.yul\":7650:7656   */\n      dup2\n        /* \"#utility.yul\":7644:7657   */\n      mload\n        /* \"#utility.yul\":7635:7657   */\n      swap1\n      pop\n        /* \"#utility.yul\":7666:7698   */\n      tag_200\n        /* \"#utility.yul\":7692:7697   */\n      dup2\n        /* \"#utility.yul\":7666:7698   */\n      tag_116\n      jump\t// in\n    tag_200:\n        /* \"#utility.yul\":7563:7704   */\n      swap3\n      swap2\n      pop\n      pop\n      jump\t// out\n        /* \"#utility.yul\":7710:7786   */\n    tag_118:\n        /* \"#utility.yul\":7746:7753   */\n      0x00\n        /* \"#utility.yul\":7775:7780   */\n      dup2\n        /* \"#utility.yul\":7764:7780   */\n      swap1\n      pop\n        /* \"#utility.yul\":7710:7786   */\n      swap2\n      swap1\n      pop\n      jump\t// out\n        /* \"#utility.yul\":7792:7912   */\n    tag_119:\n        /* \"#utility.yul\":7864:7887   */\n      tag_203\n        /* \"#utility.yul\":7881:7886   */\n      dup2\n        /* \"#utility.yul\":7864:7887   */\n      tag_118\n      jump\t// in\n    tag_203:\n        /* \"#utility.yul\":7857:7862   */\n      dup2\n        /* \"#utility.yul\":7854:7888   */\n      eq\n        /* \"#utility.yul\":7844:7906   */\n      tag_204\n      jumpi\n        /* \"#utility.yul\":7902:7903   */\n      0x00\n        /* \"#utility.yul\":7899:7900   */\n      dup1\n        /* \"#utility.yul\":7892:7904   */\n      revert\n        /* \"#utility.yul\":7844:7906   */\n    tag_204:\n        /* \"#utility.yul\":7792:7912   */\n      pop\n      jump\t// out\n        /* \"#utility.yul\":7918:8059   */\n    tag_120:\n        /* \"#utility.yul\":7974:7979   */\n      0x00\n        /* \"#utility.yul\":8005:8011   */\n      dup2\n        /* \"#utility.yul\":7999:8012   */\n      mload\n        /* \"#utility.yul\":7990:8012   */\n      swap1\n      pop\n        /* \"#utility.yul\":8021:8053   */\n      tag_206\n        /* \"#utility.yul\":8047:8052   */\n      dup2\n        /* \"#utility.yul\":8021:8053   */\n      tag_119\n      jump\t// in\n    tag_206:\n        /* \"#utility.yul\":7918:8059   */\n      swap3\n      swap2\n      pop\n      pop\n      jump\t// out\n        /* \"#utility.yul\":8065:8208   */\n    tag_121:\n        /* \"#utility.yul\":8122:8127   */\n      0x00\n        /* \"#utility.yul\":8153:8159   */\n      dup2\n        /* \"#utility.yul\":8147:8160   */\n      mload\n        /* \"#utility.yul\":8138:8160   */\n      swap1\n      pop\n        /* \"#utility.yul\":8169:8202   */\n      tag_208\n        /* \"#utility.yul\":8196:8201   */\n      dup2\n        /* \"#utility.yul\":8169:8202   */\n      tag_103\n      jump\t// in\n    tag_208:\n        /* \"#utility.yul\":8065:8208   */\n      swap3\n      swap2\n      pop\n      pop\n      jump\t// out\n        /* \"#utility.yul\":8214:9185   */\n    tag_83:\n        /* \"#utility.yul\":8317:8323   */\n      0x00\n        /* \"#utility.yul\":8325:8331   */\n      dup1\n        /* \"#utility.yul\":8333:8339   */\n      0x00\n        /* \"#utility.yul\":8341:8347   */\n      dup1\n        /* \"#utility.yul\":8349:8355   */\n      0x00\n        /* \"#utility.yul\":8398:8401   */\n      0xa0\n        /* \"#utility.yul\":8386:8395   */\n      dup7\n        /* \"#utility.yul\":8377:8384   */\n      dup9\n        /* \"#utility.yul\":8373:8396   */\n      sub\n        /* \"#utility.yul\":8369:8402   */\n      slt\n        /* \"#utility.yul\":8366:8486   */\n      iszero\n      tag_210\n      jumpi\n        /* \"#utility.yul\":8405:8484   */\n      tag_211\n      tag_94\n      jump\t// in\n    tag_211:\n        /* \"#utility.yul\":8366:8486   */\n    tag_210:\n        /* \"#utility.yul\":8525:8526   */\n      0x00\n        /* \"#utility.yul\":8550:8613   */\n      tag_212\n        /* \"#utility.yul\":8605:8612   */\n      dup9\n        /* \"#utility.yul\":8596:8602   */\n      dup3\n        /* \"#utility.yul\":8585:8594   */\n      dup10\n        /* \"#utility.yul\":8581:8603   */\n      add\n        /* \"#utility.yul\":8550:8613   */\n      tag_117\n      jump\t// in\n    tag_212:\n        /* \"#utility.yul\":8540:8613   */\n      swap6\n      pop\n        /* \"#utility.yul\":8496:8623   */\n      pop\n        /* \"#utility.yul\":8662:8664   */\n      0x20\n        /* \"#utility.yul\":8688:8751   */\n      tag_213\n        /* \"#utility.yul\":8743:8750   */\n      dup9\n        /* \"#utility.yul\":8734:8740   */\n      dup3\n        /* \"#utility.yul\":8723:8732   */\n      dup10\n        /* \"#utility.yul\":8719:8741   */\n      add\n        /* \"#utility.yul\":8688:8751   */\n      tag_120\n      jump\t// in\n    tag_213:\n        /* \"#utility.yul\":8678:8751   */\n      swap5\n      pop\n        /* \"#utility.yul\":8633:8761   */\n      pop\n        /* \"#utility.yul\":8800:8802   */\n      0x40\n        /* \"#utility.yul\":8826:8890   */\n      tag_214\n        /* \"#utility.yul\":8882:8889   */\n      dup9\n        /* \"#utility.yul\":8873:8879   */\n      dup3\n        /* \"#utility.yul\":8862:8871   */\n      dup10\n        /* \"#utility.yul\":8858:8880   */\n      add\n        /* \"#utility.yul\":8826:8890   */\n      tag_121\n      jump\t// in\n    tag_214:\n        /* \"#utility.yul\":8816:8890   */\n      swap4\n      pop\n        /* \"#utility.yul\":8771:8900   */\n      pop\n        /* \"#utility.yul\":8939:8941   */\n      0x60\n        /* \"#utility.yul\":8965:9029   */\n      tag_215\n        /* \"#utility.yul\":9021:9028   */\n      dup9\n        /* \"#utility.yul\":9012:9018   */\n      dup3\n        /* \"#utility.yul\":9001:9010   */\n      dup10\n        /* \"#utility.yul\":8997:9019   */\n      add\n        /* \"#utility.yul\":8965:9029   */\n      tag_121\n      jump\t// in\n    tag_215:\n        /* \"#utility.yul\":8955:9029   */\n      swap3\n      pop\n        /* \"#utility.yul\":8910:9039   */\n      pop\n        /* \"#utility.yul\":9078:9081   */\n      0x80\n        /* \"#utility.yul\":9105:9168   */\n      tag_216\n        /* \"#utility.yul\":9160:9167   */\n      dup9\n        /* \"#utility.yul\":9151:9157   */\n      dup3\n        /* \"#utility.yul\":9140:9149   */\n      dup10\n        /* \"#utility.yul\":9136:9158   */\n      add\n        /* \"#utility.yul\":9105:9168   */\n      tag_117\n      jump\t// in\n    tag_216:\n        /* \"#utility.yul\":9095:9168   */\n      swap2\n      pop\n        /* \"#utility.yul\":9049:9178   */\n      pop\n        /* \"#utility.yul\":8214:9185   */\n      swap3\n      swap6\n      pop\n      swap3\n      swap6\n      swap1\n      swap4\n      pop\n      jump\t// out\n        /* \"#utility.yul\":9191:9747   */\n    tag_85:\n        /* \"#utility.yul\":9230:9237   */\n      0x00\n        /* \"#utility.yul\":9253:9272   */\n      tag_218\n        /* \"#utility.yul\":9270:9271   */\n      dup3\n        /* \"#utility.yul\":9253:9272   */\n      tag_118\n      jump\t// in\n    tag_218:\n        /* \"#utility.yul\":9248:9272   */\n      swap2\n      pop\n        /* \"#utility.yul\":9286:9305   */\n      tag_219\n        /* \"#utility.yul\":9303:9304   */\n      dup4\n        /* \"#utility.yul\":9286:9305   */\n      tag_118\n      jump\t// in\n    tag_219:\n        /* \"#utility.yul\":9281:9305   */\n      swap3\n      pop\n        /* \"#utility.yul\":9340:9341   */\n      dup3\n        /* \"#utility.yul\":9337:9338   */\n      dup3\n        /* \"#utility.yul\":9333:9342   */\n      mul\n        /* \"#utility.yul\":9362:9391   */\n      tag_220\n        /* \"#utility.yul\":9379:9390   */\n      dup2\n        /* \"#utility.yul\":9362:9391   */\n      tag_118\n      jump\t// in\n    tag_220:\n        /* \"#utility.yul\":9351:9391   */\n      swap2\n      pop\n        /* \"#utility.yul\":9449:9515   */\n      0x8000000000000000000000000000000000000000000000000000000000000000\n        /* \"#utility.yul\":9446:9447   */\n      dup5\n        /* \"#utility.yul\":9443:9516   */\n      eq\n        /* \"#utility.yul\":9439:9440   */\n      0x00\n        /* \"#utility.yul\":9436:9437   */\n      dup5\n        /* \"#utility.yul\":9432:9441   */\n      slt\n        /* \"#utility.yul\":9428:9517   */\n      and\n        /* \"#utility.yul\":9425:9540   */\n      iszero\n      tag_221\n      jumpi\n        /* \"#utility.yul\":9520:9538   */\n      tag_222\n      tag_105\n      jump\t// in\n    tag_222:\n        /* \"#utility.yul\":9425:9540   */\n    tag_221:\n        /* \"#utility.yul\":9690:9691   */\n      dup3\n        /* \"#utility.yul\":9681:9688   */\n      dup3\n        /* \"#utility.yul\":9676:9692   */\n      sdiv\n        /* \"#utility.yul\":9673:9674   */\n      dup5\n        /* \"#utility.yul\":9670:9693   */\n      eq\n        /* \"#utility.yul\":9650:9651   */\n      dup4\n        /* \"#utility.yul\":9643:9652   */\n      iszero\n        /* \"#utility.yul\":9623:9707   */\n      or\n        /* \"#utility.yul\":9600:9740   */\n      tag_223\n      jumpi\n        /* \"#utility.yul\":9720:9738   */\n      tag_224\n      tag_105\n      jump\t// in\n    tag_224:\n        /* \"#utility.yul\":9600:9740   */\n    tag_223:\n        /* \"#utility.yul\":9238:9747   */\n      pop\n        /* \"#utility.yul\":9191:9747   */\n      swap3\n      swap2\n      pop\n      pop\n      jump\t// out\n\n    auxdata: 0xa26469706673582212201f85d88f329031ea0a0637b006fbcc6dd45546e315dff08bd0c7d8be7e45d37c64736f6c63430008120033\n}\n",
				"bytecode": {
					"linkReferences": {},
					"object": "60a06040526802b5e3af16b188000060025534801561001d57600080fd5b503373ffffffffffffffffffffffffffffffffffffffff1660808173ffffffffffffffffffffffffffffffffffffffff1681525050608051610c3e61007460003960008181610165015261049d0152610c3e6000f3fe6080604052600436106100555760003560e01c80633c7e7d281461005a5780633ccfd60b146100975780637a9ebc15146100ae578063b60d4288146100d9578063dba6335f146100e3578063dc0d3dff1461010e575b600080fd5b34801561006657600080fd5b50610081600480360381019061007c91906106fe565b61014b565b60405161008e9190610744565b60405180910390f35b3480156100a357600080fd5b506100ac610163565b005b3480156100ba57600080fd5b506100c361039d565b6040516100d0919061076e565b60405180910390f35b6100e16103a5565b005b3480156100ef57600080fd5b506100f861049b565b604051610105919061076e565b60405180910390f35b34801561011a57600080fd5b50610135600480360381019061013091906107b5565b6104bf565b604051610142919061076e565b60405180910390f35b60016020528060005260406000206000915090505481565b7f000000000000000000000000000000000000000000000000000000000000000073ffffffffffffffffffffffffffffffffffffffff163373ffffffffffffffffffffffffffffffffffffffff16146101e8576040517f251c9d6300000000000000000000000000000000000000000000000000000000815260040160405180910390fd5b60005b60008054905081101561028d57600060016000808481548110610211576102106107e2565b5b9060005260206000200160009054906101000a900473ffffffffffffffffffffffffffffffffffffffff1673ffffffffffffffffffffffffffffffffffffffff1673ffffffffffffffffffffffffffffffffffffffff16815260200190815260200160002081905550808061028590610840565b9150506101eb565b50600067ffffffffffffffff8111156102a9576102a8610888565b5b6040519080825280602002602001820160405280156102d75781602001602082028036833780820191505090505b50600090805190602001906102ed9291906105f4565b5060003373ffffffffffffffffffffffffffffffffffffffff1647604051610314906108e8565b60006040518083038185875af1925050503d8060008114610351576040519150601f19603f3d011682016040523d82523d6000602084013e610356565b606091505b505090508061039a576040517f08c379a00000000000000000000000000000000000000000000000000000000081526004016103919061095a565b60405180910390fd5b50565b600030905090565b6002546103b1346104fe565b10156103f2576040517f08c379a00000000000000000000000000000000000000000000000000000000081526004016103e9906109c6565b60405180910390fd5b6000339080600181540180825580915050600190039060005260206000200160009091909190916101000a81548173ffffffffffffffffffffffffffffffffffffffff021916908373ffffffffffffffffffffffffffffffffffffffff16021790555034600160003373ffffffffffffffffffffffffffffffffffffffff1673ffffffffffffffffffffffffffffffffffffffff16815260200190815260200160002081905550565b7f000000000000000000000000000000000000000000000000000000000000000081565b600081815481106104cf57600080fd5b906000526020600020016000915054906101000a900473ffffffffffffffffffffffffffffffffffffffff1681565b600080670de0b6b3a76400008361051591906109e6565b9050600061052161054b565b9050670de0b6b3a7640000818361053891906109e6565b6105429190610a57565b92505050919050565b60008073694aa1769357215de4fac081bf1f309adc325306905060008173ffffffffffffffffffffffffffffffffffffffff1663feaf968c6040518163ffffffff1660e01b815260040160a060405180830381865afa1580156105b2573d6000803e3d6000fd5b505050506040513d601f19601f820116820180604052508101906105d69190610b15565b5050509150506402540be400816105ed9190610b90565b9250505090565b82805482825590600052602060002090810192821561066d579160200282015b8281111561066c5782518260006101000a81548173ffffffffffffffffffffffffffffffffffffffff021916908373ffffffffffffffffffffffffffffffffffffffff16021790555091602001919060010190610614565b5b50905061067a919061067e565b5090565b5b8082111561069757600081600090555060010161067f565b5090565b600080fd5b600073ffffffffffffffffffffffffffffffffffffffff82169050919050565b60006106cb826106a0565b9050919050565b6106db816106c0565b81146106e657600080fd5b50565b6000813590506106f8816106d2565b92915050565b6000602082840312156107145761071361069b565b5b6000610722848285016106e9565b91505092915050565b6000819050919050565b61073e8161072b565b82525050565b60006020820190506107596000830184610735565b92915050565b610768816106c0565b82525050565b6000602082019050610783600083018461075f565b92915050565b6107928161072b565b811461079d57600080fd5b50565b6000813590506107af81610789565b92915050565b6000602082840312156107cb576107ca61069b565b5b60006107d9848285016107a0565b91505092915050565b7f4e487b7100000000000000000000000000000000000000000000000000000000600052603260045260246000fd5b7f4e487b7100000000000000000000000000000000000000000000000000000000600052601160045260246000fd5b600061084b8261072b565b91507fffffffffffffffffffffffffffffffffffffffffffffffffffffffffffffffff820361087d5761087c610811565b5b600182019050919050565b7f4e487b7100000000000000000000000000000000000000000000000000000000600052604160045260246000fd5b600081905092915050565b50565b60006108d26000836108b7565b91506108dd826108c2565b600082019050919050565b60006108f3826108c5565b9150819050919050565b600082825260208201905092915050565b7f63616c6c206661696c6564000000000000000000000000000000000000000000600082015250565b6000610944600b836108fd565b915061094f8261090e565b602082019050919050565b6000602082019050818103600083015261097381610937565b9050919050565b7f4469646e27742073656e64000000000000000000000000000000000000000000600082015250565b60006109b0600b836108fd565b91506109bb8261097a565b602082019050919050565b600060208201905081810360008301526109df816109a3565b9050919050565b60006109f18261072b565b91506109fc8361072b565b9250828202610a0a8161072b565b91508282048414831517610a2157610a20610811565b5b5092915050565b7f4e487b7100000000000000000000000000000000000000000000000000000000600052601260045260246000fd5b6000610a628261072b565b9150610a6d8361072b565b925082610a7d57610a7c610a28565b5b828204905092915050565b600069ffffffffffffffffffff82169050919050565b610aa781610a88565b8114610ab257600080fd5b50565b600081519050610ac481610a9e565b92915050565b6000819050919050565b610add81610aca565b8114610ae857600080fd5b50565b600081519050610afa81610ad4565b92915050565b600081519050610b0f81610789565b92915050565b600080600080600060a08688031215610b3157610b3061069b565b5b6000610b3f88828901610ab5565b9550506020610b5088828901610aeb565b9450506040610b6188828901610b00565b9350506060610b7288828901610b00565b9250506080610b8388828901610ab5565b9150509295509295909350565b6000610b9b82610aca565b9150610ba683610aca565b9250828202610bb481610aca565b91507f80000000000000000000000000000000000000000000000000000000000000008414600084121615610bec57610beb610811565b5b8282058414831517610c0157610c00610811565b5b509291505056fea26469706673582212201f85d88f329031ea0a0637b006fbcc6dd45546e315dff08bd0c7d8be7e45d37c64736f6c63430008120033",
					"opcodes": "PUSH1 0xA0 PUSH1 0x40 MSTORE PUSH9 0x2B5E3AF16B1880000 PUSH1 0x2 SSTORE CALLVALUE DUP1 ISZERO PUSH2 0x1D JUMPI PUSH1 0x0 DUP1 REVERT JUMPDEST POP CALLER PUSH20 0xFFFFFFFFFFFFFFFFFFFFFFFFFFFFFFFFFFFFFFFF AND PUSH1 0x80 DUP2 PUSH20 0xFFFFFFFFFFFFFFFFFFFFFFFFFFFFFFFFFFFFFFFF AND DUP2 MSTORE POP POP PUSH1 0x80 MLOAD PUSH2 0xC3E PUSH2 0x74 PUSH1 0x0 CODECOPY PUSH1 0x0 DUP2 DUP2 PUSH2 0x165 ADD MSTORE PUSH2 0x49D ADD MSTORE PUSH2 0xC3E PUSH1 0x0 RETURN INVALID PUSH1 0x80 PUSH1 0x40 MSTORE PUSH1 0x4 CALLDATASIZE LT PUSH2 0x55 JUMPI PUSH1 0x0 CALLDATALOAD PUSH1 0xE0 SHR DUP1 PUSH4 0x3C7E7D28 EQ PUSH2 0x5A JUMPI DUP1 PUSH4 0x3CCFD60B EQ PUSH2 0x97 JUMPI DUP1 PUSH4 0x7A9EBC15 EQ PUSH2 0xAE JUMPI DUP1 PUSH4 0xB60D4288 EQ PUSH2 0xD9 JUMPI DUP1 PUSH4 0xDBA6335F EQ PUSH2 0xE3 JUMPI DUP1 PUSH4 0xDC0D3DFF EQ PUSH2 0x10E JUMPI JUMPDEST PUSH1 0x0 DUP1 REVERT JUMPDEST CALLVALUE DUP1 ISZERO PUSH2 0x66 JUMPI PUSH1 0x0 DUP1 REVERT JUMPDEST POP PUSH2 0x81 PUSH1 0x4 DUP1 CALLDATASIZE SUB DUP2 ADD SWAP1 PUSH2 0x7C SWAP2 SWAP1 PUSH2 0x6FE JUMP JUMPDEST PUSH2 0x14B JUMP JUMPDEST PUSH1 0x40 MLOAD PUSH2 0x8E SWAP2 SWAP1 PUSH2 0x744 JUMP JUMPDEST PUSH1 0x40 MLOAD DUP1 SWAP2 SUB SWAP1 RETURN JUMPDEST CALLVALUE DUP1 ISZERO PUSH2 0xA3 JUMPI PUSH1 0x0 DUP1 REVERT JUMPDEST POP PUSH2 0xAC PUSH2 0x163 JUMP JUMPDEST STOP JUMPDEST CALLVALUE DUP1 ISZERO PUSH2 0xBA JUMPI PUSH1 0x0 DUP1 REVERT JUMPDEST POP PUSH2 0xC3 PUSH2 0x39D JUMP JUMPDEST PUSH1 0x40 MLOAD PUSH2 0xD0 SWAP2 SWAP1 PUSH2 0x76E JUMP JUMPDEST PUSH1 0x40 MLOAD DUP1 SWAP2 SUB SWAP1 RETURN JUMPDEST PUSH2 0xE1 PUSH2 0x3A5 JUMP JUMPDEST STOP JUMPDEST CALLVALUE DUP1 ISZERO PUSH2 0xEF JUMPI PUSH1 0x0 DUP1 REVERT JUMPDEST POP PUSH2 0xF8 PUSH2 0x49B JUMP JUMPDEST PUSH1 0x40 MLOAD PUSH2 0x105 SWAP2 SWAP1 PUSH2 0x76E JUMP JUMPDEST PUSH1 0x40 MLOAD DUP1 SWAP2 SUB SWAP1 RETURN JUMPDEST CALLVALUE DUP1 ISZERO PUSH2 0x11A JUMPI PUSH1 0x0 DUP1 REVERT JUMPDEST POP PUSH2 0x135 PUSH1 0x4 DUP1 CALLDATASIZE SUB DUP2 ADD SWAP1 PUSH2 0x130 SWAP2 SWAP1 PUSH2 0x7B5 JUMP JUMPDEST PUSH2 0x4BF JUMP JUMPDEST PUSH1 0x40 MLOAD PUSH2 0x142 SWAP2 SWAP1 PUSH2 0x76E JUMP JUMPDEST PUSH1 0x40 MLOAD DUP1 SWAP2 SUB SWAP1 RETURN JUMPDEST PUSH1 0x1 PUSH1 0x20 MSTORE DUP1 PUSH1 0x0 MSTORE PUSH1 0x40 PUSH1 0x0 KECCAK256 PUSH1 0x0 SWAP2 POP SWAP1 POP SLOAD DUP2 JUMP JUMPDEST PUSH32 0x0 PUSH20 0xFFFFFFFFFFFFFFFFFFFFFFFFFFFFFFFFFFFFFFFF AND CALLER PUSH20 0xFFFFFFFFFFFFFFFFFFFFFFFFFFFFFFFFFFFFFFFF AND EQ PUSH2 0x1E8 JUMPI PUSH1 0x40 MLOAD PUSH32 0x251C9D6300000000000000000000000000000000000000000000000000000000 DUP2 MSTORE PUSH1 0x4 ADD PUSH1 0x40 MLOAD DUP1 SWAP2 SUB SWAP1 REVERT JUMPDEST PUSH1 0x0 JUMPDEST PUSH1 0x0 DUP1 SLOAD SWAP1 POP DUP2 LT ISZERO PUSH2 0x28D JUMPI PUSH1 0x0 PUSH1 0x1 PUSH1 0x0 DUP1 DUP5 DUP2 SLOAD DUP2 LT PUSH2 0x211 JUMPI PUSH2 0x210 PUSH2 0x7E2 JUMP JUMPDEST JUMPDEST SWAP1 PUSH1 0x0 MSTORE PUSH1 0x20 PUSH1 0x0 KECCAK256 ADD PUSH1 0x0 SWAP1 SLOAD SWAP1 PUSH2 0x100 EXP SWAP1 DIV PUSH20 0xFFFFFFFFFFFFFFFFFFFFFFFFFFFFFFFFFFFFFFFF AND PUSH20 0xFFFFFFFFFFFFFFFFFFFFFFFFFFFFFFFFFFFFFFFF AND PUSH20 0xFFFFFFFFFFFFFFFFFFFFFFFFFFFFFFFFFFFFFFFF AND DUP2 MSTORE PUSH1 0x20 ADD SWAP1 DUP2 MSTORE PUSH1 0x20 ADD PUSH1 0x0 KECCAK256 DUP2 SWAP1 SSTORE POP DUP1 DUP1 PUSH2 0x285 SWAP1 PUSH2 0x840 JUMP JUMPDEST SWAP2 POP POP PUSH2 0x1EB JUMP JUMPDEST POP PUSH1 0x0 PUSH8 0xFFFFFFFFFFFFFFFF DUP2 GT ISZERO PUSH2 0x2A9 JUMPI PUSH2 0x2A8 PUSH2 0x888 JUMP JUMPDEST JUMPDEST PUSH1 0x40 MLOAD SWAP1 DUP1 DUP3 MSTORE DUP1 PUSH1 0x20 MUL PUSH1 0x20 ADD DUP3 ADD PUSH1 0x40 MSTORE DUP1 ISZERO PUSH2 0x2D7 JUMPI DUP2 PUSH1 0x20 ADD PUSH1 0x20 DUP3 MUL DUP1 CALLDATASIZE DUP4 CALLDATACOPY DUP1 DUP3 ADD SWAP2 POP POP SWAP1 POP JUMPDEST POP PUSH1 0x0 SWAP1 DUP1 MLOAD SWAP1 PUSH1 0x20 ADD SWAP1 PUSH2 0x2ED SWAP3 SWAP2 SWAP1 PUSH2 0x5F4 JUMP JUMPDEST POP PUSH1 0x0 CALLER PUSH20 0xFFFFFFFFFFFFFFFFFFFFFFFFFFFFFFFFFFFFFFFF AND SELFBALANCE PUSH1 0x40 MLOAD PUSH2 0x314 SWAP1 PUSH2 0x8E8 JUMP JUMPDEST PUSH1 0x0 PUSH1 0x40 MLOAD DUP1 DUP4 SUB DUP2 DUP6 DUP8 GAS CALL SWAP3 POP POP POP RETURNDATASIZE DUP1 PUSH1 0x0 DUP2 EQ PUSH2 0x351 JUMPI PUSH1 0x40 MLOAD SWAP2 POP PUSH1 0x1F NOT PUSH1 0x3F RETURNDATASIZE ADD AND DUP3 ADD PUSH1 0x40 MSTORE RETURNDATASIZE DUP3 MSTORE RETURNDATASIZE PUSH1 0x0 PUSH1 0x20 DUP5 ADD RETURNDATACOPY PUSH2 0x356 JUMP JUMPDEST PUSH1 0x60 SWAP2 POP JUMPDEST POP POP SWAP1 POP DUP1 PUSH2 0x39A JUMPI PUSH1 0x40 MLOAD PUSH32 0x8C379A000000000000000000000000000000000000000000000000000000000 DUP2 MSTORE PUSH1 0x4 ADD PUSH2 0x391 SWAP1 PUSH2 0x95A JUMP JUMPDEST PUSH1 0x40 MLOAD DUP1 SWAP2 SUB SWAP1 REVERT JUMPDEST POP JUMP JUMPDEST PUSH1 0x0 ADDRESS SWAP1 POP SWAP1 JUMP JUMPDEST PUSH1 0x2 SLOAD PUSH2 0x3B1 CALLVALUE PUSH2 0x4FE JUMP JUMPDEST LT ISZERO PUSH2 0x3F2 JUMPI PUSH1 0x40 MLOAD PUSH32 0x8C379A000000000000000000000000000000000000000000000000000000000 DUP2 MSTORE PUSH1 0x4 ADD PUSH2 0x3E9 SWAP1 PUSH2 0x9C6 JUMP JUMPDEST PUSH1 0x40 MLOAD DUP1 SWAP2 SUB SWAP1 REVERT JUMPDEST PUSH1 0x0 CALLER SWAP1 DUP1 PUSH1 0x1 DUP2 SLOAD ADD DUP1 DUP3 SSTORE DUP1 SWAP2 POP POP PUSH1 0x1 SWAP1 SUB SWAP1 PUSH1 0x0 MSTORE PUSH1 0x20 PUSH1 0x0 KECCAK256 ADD PUSH1 0x0 SWAP1 SWAP2 SWAP1 SWAP2 SWAP1 SWAP2 PUSH2 0x100 EXP DUP2 SLOAD DUP2 PUSH20 0xFFFFFFFFFFFFFFFFFFFFFFFFFFFFFFFFFFFFFFFF MUL NOT AND SWAP1 DUP4 PUSH20 0xFFFFFFFFFFFFFFFFFFFFFFFFFFFFFFFFFFFFFFFF AND MUL OR SWAP1 SSTORE POP CALLVALUE PUSH1 0x1 PUSH1 0x0 CALLER PUSH20 0xFFFFFFFFFFFFFFFFFFFFFFFFFFFFFFFFFFFFFFFF AND PUSH20 0xFFFFFFFFFFFFFFFFFFFFFFFFFFFFFFFFFFFFFFFF AND DUP2 MSTORE PUSH1 0x20 ADD SWAP1 DUP2 MSTORE PUSH1 0x20 ADD PUSH1 0x0 KECCAK256 DUP2 SWAP1 SSTORE POP JUMP JUMPDEST PUSH32 0x0 DUP2 JUMP JUMPDEST PUSH1 0x0 DUP2 DUP2 SLOAD DUP2 LT PUSH2 0x4CF JUMPI PUSH1 0x0 DUP1 REVERT JUMPDEST SWAP1 PUSH1 0x0 MSTORE PUSH1 0x20 PUSH1 0x0 KECCAK256 ADD PUSH1 0x0 SWAP2 POP SLOAD SWAP1 PUSH2 0x100 EXP SWAP1 DIV PUSH20 0xFFFFFFFFFFFFFFFFFFFFFFFFFFFFFFFFFFFFFFFF AND DUP2 JUMP JUMPDEST PUSH1 0x0 DUP1 PUSH8 0xDE0B6B3A7640000 DUP4 PUSH2 0x515 SWAP2 SWAP1 PUSH2 0x9E6 JUMP JUMPDEST SWAP1 POP PUSH1 0x0 PUSH2 0x521 PUSH2 0x54B JUMP JUMPDEST SWAP1 POP PUSH8 0xDE0B6B3A7640000 DUP2 DUP4 PUSH2 0x538 SWAP2 SWAP1 PUSH2 0x9E6 JUMP JUMPDEST PUSH2 0x542 SWAP2 SWAP1 PUSH2 0xA57 JUMP JUMPDEST SWAP3 POP POP POP SWAP2 SWAP1 POP JUMP JUMPDEST PUSH1 0x0 DUP1 PUSH20 0x694AA1769357215DE4FAC081BF1F309ADC325306 SWAP1 POP PUSH1 0x0 DUP2 PUSH20 0xFFFFFFFFFFFFFFFFFFFFFFFFFFFFFFFFFFFFFFFF AND PUSH4 0xFEAF968C PUSH1 0x40 MLOAD DUP2 PUSH4 0xFFFFFFFF AND PUSH1 0xE0 SHL DUP2 MSTORE PUSH1 0x4 ADD PUSH1 0xA0 PUSH1 0x40 MLOAD DUP1 DUP4 SUB DUP2 DUP7 GAS STATICCALL ISZERO DUP1 ISZERO PUSH2 0x5B2 JUMPI RETURNDATASIZE PUSH1 0x0 DUP1 RETURNDATACOPY RETURNDATASIZE PUSH1 0x0 REVERT JUMPDEST POP POP POP POP PUSH1 0x40 MLOAD RETURNDATASIZE PUSH1 0x1F NOT PUSH1 0x1F DUP3 ADD AND DUP3 ADD DUP1 PUSH1 0x40 MSTORE POP DUP2 ADD SWAP1 PUSH2 0x5D6 SWAP2 SWAP1 PUSH2 0xB15 JUMP JUMPDEST POP POP POP SWAP2 POP POP PUSH5 0x2540BE400 DUP2 PUSH2 0x5ED SWAP2 SWAP1 PUSH2 0xB90 JUMP JUMPDEST SWAP3 POP POP POP SWAP1 JUMP JUMPDEST DUP3 DUP1 SLOAD DUP3 DUP3 SSTORE SWAP1 PUSH1 0x0 MSTORE PUSH1 0x20 PUSH1 0x0 KECCAK256 SWAP1 DUP2 ADD SWAP3 DUP3 ISZERO PUSH2 0x66D JUMPI SWAP2 PUSH1 0x20 MUL DUP3 ADD JUMPDEST DUP3 DUP2 GT ISZERO PUSH2 0x66C JUMPI DUP3 MLOAD DUP3 PUSH1 0x0 PUSH2 0x100 EXP DUP2 SLOAD DUP2 PUSH20 0xFFFFFFFFFFFFFFFFFFFFFFFFFFFFFFFFFFFFFFFF MUL NOT AND SWAP1 DUP4 PUSH20 0xFFFFFFFFFFFFFFFFFFFFFFFFFFFFFFFFFFFFFFFF AND MUL OR SWAP1 SSTORE POP SWAP2 PUSH1 0x20 ADD SWAP2 SWAP1 PUSH1 0x1 ADD SWAP1 PUSH2 0x614 JUMP JUMPDEST JUMPDEST POP SWAP1 POP PUSH2 0x67A SWAP2 SWAP1 PUSH2 0x67E JUMP JUMPDEST POP SWAP1 JUMP JUMPDEST JUMPDEST DUP1 DUP3 GT ISZERO PUSH2 0x697 JUMPI PUSH1 0x0 DUP2 PUSH1 0x0 SWAP1 SSTORE POP PUSH1 0x1 ADD PUSH2 0x67F JUMP JUMPDEST POP SWAP1 JUMP JUMPDEST PUSH1 0x0 DUP1 REVERT JUMPDEST PUSH1 0x0 PUSH20 0xFFFFFFFFFFFFFFFFFFFFFFFFFFFFFFFFFFFFFFFF DUP3 AND SWAP1 POP SWAP2 SWAP1 POP JUMP JUMPDEST PUSH1 0x0 PUSH2 0x6CB DUP3 PUSH2 0x6A0 JUMP JUMPDEST SWAP1 POP SWAP2 SWAP1 POP JUMP JUMPDEST PUSH2 0x6DB DUP2 PUSH2 0x6C0 JUMP JUMPDEST DUP2 EQ PUSH2 0x6E6 JUMPI PUSH1 0x0 DUP1 REVERT JUMPDEST POP JUMP JUMPDEST PUSH1 0x0 DUP2 CALLDATALOAD SWAP1 POP PUSH2 0x6F8 DUP2 PUSH2 0x6D2 JUMP JUMPDEST SWAP3 SWAP2 POP POP JUMP JUMPDEST PUSH1 0x0 PUSH1 0x20 DUP3 DUP5 SUB SLT ISZERO PUSH2 0x714 JUMPI PUSH2 0x713 PUSH2 0x69B JUMP JUMPDEST JUMPDEST PUSH1 0x0 PUSH2 0x722 DUP5 DUP3 DUP6 ADD PUSH2 0x6E9 JUMP JUMPDEST SWAP2 POP POP SWAP3 SWAP2 POP POP JUMP JUMPDEST PUSH1 0x0 DUP2 SWAP1 POP SWAP2 SWAP1 POP JUMP JUMPDEST PUSH2 0x73E DUP2 PUSH2 0x72B JUMP JUMPDEST DUP3 MSTORE POP POP JUMP JUMPDEST PUSH1 0x0 PUSH1 0x20 DUP3 ADD SWAP1 POP PUSH2 0x759 PUSH1 0x0 DUP4 ADD DUP5 PUSH2 0x735 JUMP JUMPDEST SWAP3 SWAP2 POP POP JUMP JUMPDEST PUSH2 0x768 DUP2 PUSH2 0x6C0 JUMP JUMPDEST DUP3 MSTORE POP POP JUMP JUMPDEST PUSH1 0x0 PUSH1 0x20 DUP3 ADD SWAP1 POP PUSH2 0x783 PUSH1 0x0 DUP4 ADD DUP5 PUSH2 0x75F JUMP JUMPDEST SWAP3 SWAP2 POP POP JUMP JUMPDEST PUSH2 0x792 DUP2 PUSH2 0x72B JUMP JUMPDEST DUP2 EQ PUSH2 0x79D JUMPI PUSH1 0x0 DUP1 REVERT JUMPDEST POP JUMP JUMPDEST PUSH1 0x0 DUP2 CALLDATALOAD SWAP1 POP PUSH2 0x7AF DUP2 PUSH2 0x789 JUMP JUMPDEST SWAP3 SWAP2 POP POP JUMP JUMPDEST PUSH1 0x0 PUSH1 0x20 DUP3 DUP5 SUB SLT ISZERO PUSH2 0x7CB JUMPI PUSH2 0x7CA PUSH2 0x69B JUMP JUMPDEST JUMPDEST PUSH1 0x0 PUSH2 0x7D9 DUP5 DUP3 DUP6 ADD PUSH2 0x7A0 JUMP JUMPDEST SWAP2 POP POP SWAP3 SWAP2 POP POP JUMP JUMPDEST PUSH32 0x4E487B7100000000000000000000000000000000000000000000000000000000 PUSH1 0x0 MSTORE PUSH1 0x32 PUSH1 0x4 MSTORE PUSH1 0x24 PUSH1 0x0 REVERT JUMPDEST PUSH32 0x4E487B7100000000000000000000000000000000000000000000000000000000 PUSH1 0x0 MSTORE PUSH1 0x11 PUSH1 0x4 MSTORE PUSH1 0x24 PUSH1 0x0 REVERT JUMPDEST PUSH1 0x0 PUSH2 0x84B DUP3 PUSH2 0x72B JUMP JUMPDEST SWAP2 POP PUSH32 0xFFFFFFFFFFFFFFFFFFFFFFFFFFFFFFFFFFFFFFFFFFFFFFFFFFFFFFFFFFFFFFFF DUP3 SUB PUSH2 0x87D JUMPI PUSH2 0x87C PUSH2 0x811 JUMP JUMPDEST JUMPDEST PUSH1 0x1 DUP3 ADD SWAP1 POP SWAP2 SWAP1 POP JUMP JUMPDEST PUSH32 0x4E487B7100000000000000000000000000000000000000000000000000000000 PUSH1 0x0 MSTORE PUSH1 0x41 PUSH1 0x4 MSTORE PUSH1 0x24 PUSH1 0x0 REVERT JUMPDEST PUSH1 0x0 DUP2 SWAP1 POP SWAP3 SWAP2 POP POP JUMP JUMPDEST POP JUMP JUMPDEST PUSH1 0x0 PUSH2 0x8D2 PUSH1 0x0 DUP4 PUSH2 0x8B7 JUMP JUMPDEST SWAP2 POP PUSH2 0x8DD DUP3 PUSH2 0x8C2 JUMP JUMPDEST PUSH1 0x0 DUP3 ADD SWAP1 POP SWAP2 SWAP1 POP JUMP JUMPDEST PUSH1 0x0 PUSH2 0x8F3 DUP3 PUSH2 0x8C5 JUMP JUMPDEST SWAP2 POP DUP2 SWAP1 POP SWAP2 SWAP1 POP JUMP JUMPDEST PUSH1 0x0 DUP3 DUP3 MSTORE PUSH1 0x20 DUP3 ADD SWAP1 POP SWAP3 SWAP2 POP POP JUMP JUMPDEST PUSH32 0x63616C6C206661696C6564000000000000000000000000000000000000000000 PUSH1 0x0 DUP3 ADD MSTORE POP JUMP JUMPDEST PUSH1 0x0 PUSH2 0x944 PUSH1 0xB DUP4 PUSH2 0x8FD JUMP JUMPDEST SWAP2 POP PUSH2 0x94F DUP3 PUSH2 0x90E JUMP JUMPDEST PUSH1 0x20 DUP3 ADD SWAP1 POP SWAP2 SWAP1 POP JUMP JUMPDEST PUSH1 0x0 PUSH1 0x20 DUP3 ADD SWAP1 POP DUP2 DUP2 SUB PUSH1 0x0 DUP4 ADD MSTORE PUSH2 0x973 DUP2 PUSH2 0x937 JUMP JUMPDEST SWAP1 POP SWAP2 SWAP1 POP JUMP JUMPDEST PUSH32 0x4469646E27742073656E64000000000000000000000000000000000000000000 PUSH1 0x0 DUP3 ADD MSTORE POP JUMP JUMPDEST PUSH1 0x0 PUSH2 0x9B0 PUSH1 0xB DUP4 PUSH2 0x8FD JUMP JUMPDEST SWAP2 POP PUSH2 0x9BB DUP3 PUSH2 0x97A JUMP JUMPDEST PUSH1 0x20 DUP3 ADD SWAP1 POP SWAP2 SWAP1 POP JUMP JUMPDEST PUSH1 0x0 PUSH1 0x20 DUP3 ADD SWAP1 POP DUP2 DUP2 SUB PUSH1 0x0 DUP4 ADD MSTORE PUSH2 0x9DF DUP2 PUSH2 0x9A3 JUMP JUMPDEST SWAP1 POP SWAP2 SWAP1 POP JUMP JUMPDEST PUSH1 0x0 PUSH2 0x9F1 DUP3 PUSH2 0x72B JUMP JUMPDEST SWAP2 POP PUSH2 0x9FC DUP4 PUSH2 0x72B JUMP JUMPDEST SWAP3 POP DUP3 DUP3 MUL PUSH2 0xA0A DUP2 PUSH2 0x72B JUMP JUMPDEST SWAP2 POP DUP3 DUP3 DIV DUP5 EQ DUP4 ISZERO OR PUSH2 0xA21 JUMPI PUSH2 0xA20 PUSH2 0x811 JUMP JUMPDEST JUMPDEST POP SWAP3 SWAP2 POP POP JUMP JUMPDEST PUSH32 0x4E487B7100000000000000000000000000000000000000000000000000000000 PUSH1 0x0 MSTORE PUSH1 0x12 PUSH1 0x4 MSTORE PUSH1 0x24 PUSH1 0x0 REVERT JUMPDEST PUSH1 0x0 PUSH2 0xA62 DUP3 PUSH2 0x72B JUMP JUMPDEST SWAP2 POP PUSH2 0xA6D DUP4 PUSH2 0x72B JUMP JUMPDEST SWAP3 POP DUP3 PUSH2 0xA7D JUMPI PUSH2 0xA7C PUSH2 0xA28 JUMP JUMPDEST JUMPDEST DUP3 DUP3 DIV SWAP1 POP SWAP3 SWAP2 POP POP JUMP JUMPDEST PUSH1 0x0 PUSH10 0xFFFFFFFFFFFFFFFFFFFF DUP3 AND SWAP1 POP SWAP2 SWAP1 POP JUMP JUMPDEST PUSH2 0xAA7 DUP2 PUSH2 0xA88 JUMP JUMPDEST DUP2 EQ PUSH2 0xAB2 JUMPI PUSH1 0x0 DUP1 REVERT JUMPDEST POP JUMP JUMPDEST PUSH1 0x0 DUP2 MLOAD SWAP1 POP PUSH2 0xAC4 DUP2 PUSH2 0xA9E JUMP JUMPDEST SWAP3 SWAP2 POP POP JUMP JUMPDEST PUSH1 0x0 DUP2 SWAP1 POP SWAP2 SWAP1 POP JUMP JUMPDEST PUSH2 0xADD DUP2 PUSH2 0xACA JUMP JUMPDEST DUP2 EQ PUSH2 0xAE8 JUMPI PUSH1 0x0 DUP1 REVERT JUMPDEST POP JUMP JUMPDEST PUSH1 0x0 DUP2 MLOAD SWAP1 POP PUSH2 0xAFA DUP2 PUSH2 0xAD4 JUMP JUMPDEST SWAP3 SWAP2 POP POP JUMP JUMPDEST PUSH1 0x0 DUP2 MLOAD SWAP1 POP PUSH2 0xB0F DUP2 PUSH2 0x789 JUMP JUMPDEST SWAP3 SWAP2 POP POP JUMP JUMPDEST PUSH1 0x0 DUP1 PUSH1 0x0 DUP1 PUSH1 0x0 PUSH1 0xA0 DUP7 DUP9 SUB SLT ISZERO PUSH2 0xB31 JUMPI PUSH2 0xB30 PUSH2 0x69B JUMP JUMPDEST JUMPDEST PUSH1 0x0 PUSH2 0xB3F DUP9 DUP3 DUP10 ADD PUSH2 0xAB5 JUMP JUMPDEST SWAP6 POP POP PUSH1 0x20 PUSH2 0xB50 DUP9 DUP3 DUP10 ADD PUSH2 0xAEB JUMP JUMPDEST SWAP5 POP POP PUSH1 0x40 PUSH2 0xB61 DUP9 DUP3 DUP10 ADD PUSH2 0xB00 JUMP JUMPDEST SWAP4 POP POP PUSH1 0x60 PUSH2 0xB72 DUP9 DUP3 DUP10 ADD PUSH2 0xB00 JUMP JUMPDEST SWAP3 POP POP PUSH1 0x80 PUSH2 0xB83 DUP9 DUP3 DUP10 ADD PUSH2 0xAB5 JUMP JUMPDEST SWAP2 POP POP SWAP3 SWAP6 POP SWAP3 SWAP6 SWAP1 SWAP4 POP JUMP JUMPDEST PUSH1 0x0 PUSH2 0xB9B DUP3 PUSH2 0xACA JUMP JUMPDEST SWAP2 POP PUSH2 0xBA6 DUP4 PUSH2 0xACA JUMP JUMPDEST SWAP3 POP DUP3 DUP3 MUL PUSH2 0xBB4 DUP2 PUSH2 0xACA JUMP JUMPDEST SWAP2 POP PUSH32 0x8000000000000000000000000000000000000000000000000000000000000000 DUP5 EQ PUSH1 0x0 DUP5 SLT AND ISZERO PUSH2 0xBEC JUMPI PUSH2 0xBEB PUSH2 0x811 JUMP JUMPDEST JUMPDEST DUP3 DUP3 SDIV DUP5 EQ DUP4 ISZERO OR PUSH2 0xC01 JUMPI PUSH2 0xC00 PUSH2 0x811 JUMP JUMPDEST JUMPDEST POP SWAP3 SWAP2 POP POP JUMP INVALID LOG2 PUSH5 0x6970667358 0x22 SLT KECCAK256 0x1F DUP6 0xD8 DUP16 ORIGIN SWAP1 BALANCE 0xEA EXP MOD CALLDATACOPY 0xB0 MOD 0xFB 0xCC PUSH14 0xD45546E315DFF08BD0C7D8BE7E45 0xD3 PUSH29 0x64736F6C63430008120033000000000000000000000000000000000000 "
				},
				"gasEstimates": {
					"creation": {
						"codeDepositCost": "626800",
						"executionCost": "infinite",
						"totalCost": "infinite"
					},
					"external": {
						"addressToAmount(address)": "2792",
						"fund()": "infinite",
						"funders(uint256)": "5044",
						"i_owner()": "infinite",
						"viewContractAddress()": "407",
						"withdraw()": "infinite"
					}
				},
				"methodIdentifiers": {
					"addressToAmount(address)": "3c7e7d28",
					"fund()": "b60d4288",
					"funders(uint256)": "dc0d3dff",
					"i_owner()": "dba6335f",
					"viewContractAddress()": "7a9ebc15",
					"withdraw()": "3ccfd60b"
				}
			},
			"storageLayout": {
				"storage": [
					{
						"astId": 56,
						"contract": "fundme/FundMe.sol:FundMe",
						"label": "funders",
						"offset": 0,
						"slot": "0",
						"type": "t_array(t_address)dyn_storage"
					},
					{
						"astId": 62,
						"contract": "fundme/FundMe.sol:FundMe",
						"label": "addressToAmount",
						"offset": 0,
						"slot": "1",
						"type": "t_mapping(t_address,t_uint256)"
					},
					{
						"astId": 67,
						"contract": "fundme/FundMe.sol:FundMe",
						"label": "minimumUsd",
						"offset": 0,
						"slot": "2",
						"type": "t_uint256"
					}
				],
				"types": {
					"t_address": {
						"encoding": "inplace",
						"label": "address",
						"numberOfBytes": "20"
					},
					"t_array(t_address)dyn_storage": {
						"base": "t_address",
						"encoding": "dynamic_array",
						"label": "address[]",
						"numberOfBytes": "32"
					},
					"t_mapping(t_address,t_uint256)": {
						"encoding": "mapping",
						"key": "t_address",
						"label": "mapping(address => uint256)",
						"numberOfBytes": "32",
						"value": "t_uint256"
					},
					"t_uint256": {
						"encoding": "inplace",
						"label": "uint256",
						"numberOfBytes": "32"
					}
				}
			},
			"userdoc": {
				"kind": "user",
				"methods": {},
				"version": 1
			}
		}
	}
}